{
  "address": "0xf8bF1c13fc62e9a09e4e9e549431f950135Dd315",
  "abi": [
    {
      "inputs": [],
      "stateMutability": "nonpayable",
      "type": "constructor"
    },
    {
      "inputs": [
        {
          "internalType": "address",
          "name": "spender",
          "type": "address"
        },
        {
          "internalType": "uint256",
          "name": "allowance",
          "type": "uint256"
        },
        {
          "internalType": "uint256",
          "name": "needed",
          "type": "uint256"
        }
      ],
      "name": "ERC20InsufficientAllowance",
      "type": "error"
    },
    {
      "inputs": [
        {
          "internalType": "address",
          "name": "sender",
          "type": "address"
        },
        {
          "internalType": "uint256",
          "name": "balance",
          "type": "uint256"
        },
        {
          "internalType": "uint256",
          "name": "needed",
          "type": "uint256"
        }
      ],
      "name": "ERC20InsufficientBalance",
      "type": "error"
    },
    {
      "inputs": [
        {
          "internalType": "address",
          "name": "approver",
          "type": "address"
        }
      ],
      "name": "ERC20InvalidApprover",
      "type": "error"
    },
    {
      "inputs": [
        {
          "internalType": "address",
          "name": "receiver",
          "type": "address"
        }
      ],
      "name": "ERC20InvalidReceiver",
      "type": "error"
    },
    {
      "inputs": [
        {
          "internalType": "address",
          "name": "sender",
          "type": "address"
        }
      ],
      "name": "ERC20InvalidSender",
      "type": "error"
    },
    {
      "inputs": [
        {
          "internalType": "address",
          "name": "spender",
          "type": "address"
        }
      ],
      "name": "ERC20InvalidSpender",
      "type": "error"
    },
    {
      "inputs": [
        {
          "internalType": "address",
          "name": "owner",
          "type": "address"
        }
      ],
      "name": "OwnableInvalidOwner",
      "type": "error"
    },
    {
      "inputs": [
        {
          "internalType": "address",
          "name": "account",
          "type": "address"
        }
      ],
      "name": "OwnableUnauthorizedAccount",
      "type": "error"
    },
    {
      "anonymous": false,
      "inputs": [
        {
          "indexed": true,
          "internalType": "address",
          "name": "owner",
          "type": "address"
        },
        {
          "indexed": true,
          "internalType": "address",
          "name": "spender",
          "type": "address"
        },
        {
          "indexed": false,
          "internalType": "uint256",
          "name": "value",
          "type": "uint256"
        }
      ],
      "name": "Approval",
      "type": "event"
    },
    {
      "anonymous": false,
      "inputs": [
        {
          "indexed": true,
          "internalType": "address",
          "name": "user",
          "type": "address"
        },
        {
          "indexed": false,
          "internalType": "uint256",
          "name": "amount",
          "type": "uint256"
        },
        {
          "indexed": false,
          "internalType": "uint256",
          "name": "timestamp",
          "type": "uint256"
        }
      ],
      "name": "Claimed",
      "type": "event"
    },
    {
      "anonymous": false,
      "inputs": [
        {
          "indexed": true,
          "internalType": "address",
          "name": "previousOwner",
          "type": "address"
        },
        {
          "indexed": true,
          "internalType": "address",
          "name": "newOwner",
          "type": "address"
        }
      ],
      "name": "OwnershipTransferred",
      "type": "event"
    },
    {
      "anonymous": false,
      "inputs": [
        {
          "indexed": true,
          "internalType": "address",
          "name": "from",
          "type": "address"
        },
        {
          "indexed": true,
          "internalType": "address",
          "name": "to",
          "type": "address"
        },
        {
          "indexed": false,
          "internalType": "uint256",
          "name": "value",
          "type": "uint256"
        }
      ],
      "name": "Transfer",
      "type": "event"
    },
    {
      "inputs": [],
      "name": "MAX_CLAIM",
      "outputs": [
        {
          "internalType": "uint256",
          "name": "",
          "type": "uint256"
        }
      ],
      "stateMutability": "view",
      "type": "function"
    },
    {
      "inputs": [],
      "name": "MIN_CLAIM",
      "outputs": [
        {
          "internalType": "uint256",
          "name": "",
          "type": "uint256"
        }
      ],
      "stateMutability": "view",
      "type": "function"
    },
    {
      "inputs": [
        {
          "internalType": "address",
          "name": "owner",
          "type": "address"
        },
        {
          "internalType": "address",
          "name": "spender",
          "type": "address"
        }
      ],
      "name": "allowance",
      "outputs": [
        {
          "internalType": "uint256",
          "name": "",
          "type": "uint256"
        }
      ],
      "stateMutability": "view",
      "type": "function"
    },
    {
      "inputs": [
        {
          "internalType": "address",
          "name": "spender",
          "type": "address"
        },
        {
          "internalType": "uint256",
          "name": "value",
          "type": "uint256"
        }
      ],
      "name": "approve",
      "outputs": [
        {
          "internalType": "bool",
          "name": "",
          "type": "bool"
        }
      ],
      "stateMutability": "nonpayable",
      "type": "function"
    },
    {
      "inputs": [
        {
          "internalType": "address",
          "name": "account",
          "type": "address"
        }
      ],
      "name": "balanceOf",
      "outputs": [
        {
          "internalType": "uint256",
          "name": "",
          "type": "uint256"
        }
      ],
      "stateMutability": "view",
      "type": "function"
    },
    {
      "inputs": [
        {
          "internalType": "uint256",
          "name": "",
          "type": "uint256"
        }
      ],
      "name": "claimLogs",
      "outputs": [
        {
          "internalType": "address",
          "name": "user",
          "type": "address"
        },
        {
          "internalType": "uint256",
          "name": "amount",
          "type": "uint256"
        },
        {
          "internalType": "uint256",
          "name": "timestamp",
          "type": "uint256"
        }
      ],
      "stateMutability": "view",
      "type": "function"
    },
    {
      "inputs": [
        {
          "internalType": "address",
          "name": "to",
          "type": "address"
        },
        {
          "internalType": "uint256",
          "name": "amount",
          "type": "uint256"
        }
      ],
      "name": "claimToken",
      "outputs": [
        {
          "internalType": "bool",
          "name": "",
          "type": "bool"
        }
      ],
      "stateMutability": "nonpayable",
      "type": "function"
    },
    {
      "inputs": [],
      "name": "decimals",
      "outputs": [
        {
          "internalType": "uint8",
          "name": "",
          "type": "uint8"
        }
      ],
      "stateMutability": "view",
      "type": "function"
    },
    {
      "inputs": [
        {
          "internalType": "uint256",
          "name": "index",
          "type": "uint256"
        }
      ],
      "name": "getClaimLog",
      "outputs": [
        {
          "components": [
            {
              "internalType": "address",
              "name": "user",
              "type": "address"
            },
            {
              "internalType": "uint256",
              "name": "amount",
              "type": "uint256"
            },
            {
              "internalType": "uint256",
              "name": "timestamp",
              "type": "uint256"
            }
          ],
          "internalType": "struct RBUToken.ClaimLog",
          "name": "",
          "type": "tuple"
        }
      ],
      "stateMutability": "view",
      "type": "function"
    },
    {
      "inputs": [],
      "name": "getTotalClaims",
      "outputs": [
        {
          "internalType": "uint256",
          "name": "",
          "type": "uint256"
        }
      ],
      "stateMutability": "view",
      "type": "function"
    },
    {
      "inputs": [],
      "name": "name",
      "outputs": [
        {
          "internalType": "string",
          "name": "",
          "type": "string"
        }
      ],
      "stateMutability": "view",
      "type": "function"
    },
    {
      "inputs": [],
      "name": "owner",
      "outputs": [
        {
          "internalType": "address",
          "name": "",
          "type": "address"
        }
      ],
      "stateMutability": "view",
      "type": "function"
    },
    {
      "inputs": [],
      "name": "renounceOwnership",
      "outputs": [],
      "stateMutability": "nonpayable",
      "type": "function"
    },
    {
      "inputs": [],
      "name": "router",
      "outputs": [
        {
          "internalType": "address",
          "name": "",
          "type": "address"
        }
      ],
      "stateMutability": "view",
      "type": "function"
    },
    {
      "inputs": [
        {
          "internalType": "address",
          "name": "_router",
          "type": "address"
        }
      ],
      "name": "setRouter",
      "outputs": [],
      "stateMutability": "nonpayable",
      "type": "function"
    },
    {
      "inputs": [],
      "name": "symbol",
      "outputs": [
        {
          "internalType": "string",
          "name": "",
          "type": "string"
        }
      ],
      "stateMutability": "view",
      "type": "function"
    },
    {
      "inputs": [],
      "name": "totalClaims",
      "outputs": [
        {
          "internalType": "uint256",
          "name": "",
          "type": "uint256"
        }
      ],
      "stateMutability": "view",
      "type": "function"
    },
    {
      "inputs": [],
      "name": "totalSupply",
      "outputs": [
        {
          "internalType": "uint256",
          "name": "",
          "type": "uint256"
        }
      ],
      "stateMutability": "view",
      "type": "function"
    },
    {
      "inputs": [
        {
          "internalType": "address",
          "name": "to",
          "type": "address"
        },
        {
          "internalType": "uint256",
          "name": "value",
          "type": "uint256"
        }
      ],
      "name": "transfer",
      "outputs": [
        {
          "internalType": "bool",
          "name": "",
          "type": "bool"
        }
      ],
      "stateMutability": "nonpayable",
      "type": "function"
    },
    {
      "inputs": [
        {
          "internalType": "address",
          "name": "from",
          "type": "address"
        },
        {
          "internalType": "address",
          "name": "to",
          "type": "address"
        },
        {
          "internalType": "uint256",
          "name": "value",
          "type": "uint256"
        }
      ],
      "name": "transferFrom",
      "outputs": [
        {
          "internalType": "bool",
          "name": "",
          "type": "bool"
        }
      ],
      "stateMutability": "nonpayable",
      "type": "function"
    },
    {
      "inputs": [
        {
          "internalType": "address",
          "name": "newOwner",
          "type": "address"
        }
      ],
      "name": "transferOwnership",
      "outputs": [],
      "stateMutability": "nonpayable",
      "type": "function"
    }
  ],
  "transactionHash": "0xa5f8bb6e7dc0b37fdfa36597376dd2b89b3331524684c0d9c7cb0f927438b90b",
  "args": [],
  "numDeployments": 1,
  "solcInputHash": "641d868bf1146eca837219932a9deb85",
  "bytecode": "0x60806040523480156200001157600080fd5b50738869685b9a5bf8a8450b9fe9944e5e3d287d8f776040518060400160405280600981526020016829212a902a37b5b2b760b91b8152506040518060400160405280600381526020016252425560e81b815250816003908162000076919062000347565b50600462000085828262000347565b5050506001600160a01b038116620000b857604051631e4fbdf760e01b8152600060048201526024015b60405180910390fd5b620000c381620000df565b50620000d933683635c9adc5dea0000062000131565b6200043b565b600580546001600160a01b038381166001600160a01b0319831681179093556040519116919082907f8be0079c531659141344cd1fd0a4f28419497f9722a3daafe3b4186f6b6457e090600090a35050565b6001600160a01b0382166200015d5760405163ec442f0560e01b815260006004820152602401620000af565b6200016b600083836200016f565b5050565b6001600160a01b0383166200019e57806002600082825462000192919062000413565b90915550620002129050565b6001600160a01b03831660009081526020819052604090205481811015620001f35760405163391434e360e21b81526001600160a01b03851660048201526024810182905260448101839052606401620000af565b6001600160a01b03841660009081526020819052604090209082900390555b6001600160a01b03821662000230576002805482900390556200024f565b6001600160a01b03821660009081526020819052604090208054820190555b816001600160a01b0316836001600160a01b03167fddf252ad1be2c89b69c2b068fc378daa952ba7f163c4a11628f55a4df523b3ef836040516200029591815260200190565b60405180910390a3505050565b634e487b7160e01b600052604160045260246000fd5b600181811c90821680620002cd57607f821691505b602082108103620002ee57634e487b7160e01b600052602260045260246000fd5b50919050565b601f8211156200034257600081815260208120601f850160051c810160208610156200031d5750805b601f850160051c820191505b818110156200033e5782815560010162000329565b5050505b505050565b81516001600160401b03811115620003635762000363620002a2565b6200037b81620003748454620002b8565b84620002f4565b602080601f831160018114620003b357600084156200039a5750858301515b600019600386901b1c1916600185901b1785556200033e565b600085815260208120601f198616915b82811015620003e457888601518255948401946001909101908401620003c3565b5085821015620004035787850151600019600388901b60f8161c191681555b5050505050600190811b01905550565b808201808211156200043557634e487b7160e01b600052601160045260246000fd5b92915050565b610e16806200044b6000396000f3fe608060405234801561001057600080fd5b50600436106101375760003560e01c806341c61383116100b8578063a9059cbb1161007c578063a9059cbb14610282578063c0d7865514610295578063dd62ed3e146102a8578063ec8fec4f146102e1578063f2fde38b14610319578063f887ea401461032c57600080fd5b806341c613831461021957806370a0823114610222578063715018a61461024b5780638da5cb5b1461025557806395d89b411461027a57600080fd5b806318160ddd116100ff57806318160ddd146101b15780631cd2a05d1461013c57806323b872dd146101b957806326d96a8f146101cc578063313ce5671461020a57600080fd5b806301b65b711461013c57806306fdde031461015e578063095ea7b3146101735780631698755f1461019657806316daa23b146101a9575b600080fd5b61014b673782dace9d90000081565b6040519081526020015b60405180910390f35b61016661033f565b6040516101559190610c10565b610186610181366004610c7a565b6103d1565b6040519015158152602001610155565b6101866101a4366004610c7a565b6103eb565b60075461014b565b60025461014b565b6101866101c7366004610ca4565b610652565b6101df6101da366004610ce0565b610676565b6040805182516001600160a01b03168152602080840151908201529181015190820152606001610155565b60405160128152602001610155565b61014b60075481565b61014b610230366004610cf9565b6001600160a01b031660009081526020819052604090205490565b610253610748565b005b6005546001600160a01b03165b6040516001600160a01b039091168152602001610155565b61016661075c565b610186610290366004610c7a565b61076b565b6102536102a3366004610cf9565b610779565b61014b6102b6366004610d1b565b6001600160a01b03918216600090815260016020908152604080832093909416825291909152205490565b6102f46102ef366004610ce0565b6107ee565b604080516001600160a01b039094168452602084019290925290820152606001610155565b610253610327366004610cf9565b61082b565b600654610262906001600160a01b031681565b60606003805461034e90610d4e565b80601f016020809104026020016040519081016040528092919081815260200182805461037a90610d4e565b80156103c75780601f1061039c576101008083540402835291602001916103c7565b820191906000526020600020905b8154815290600101906020018083116103aa57829003601f168201915b5050505050905090565b6000336103df818585610869565b60019150505b92915050565b6006546000906001600160a01b0316331461045d5760405162461bcd60e51b815260206004820152602760248201527f4f6e6c792074686520726f757465722063616e2063616c6c20746869732066756044820152663731ba34b7b71760c91b60648201526084015b60405180910390fd5b6001600160a01b0383166104a85760405162461bcd60e51b8152602060048201526012602482015271446972656363696f6e20696e76616c69646160701b6044820152606401610454565b673782dace9d90000082101580156104c85750673782dace9d9000008211155b61052a5760405162461bcd60e51b815260206004820152602d60248201527f4c612063616e7469646164206465626520736572206578616374616d656e746560448201526c20342052425520746f6b656e7360981b6064820152608401610454565b610534838361087b565b604080516060810182526001600160a01b038581168252602082018581524293830193845260088054600181018255600091825293517ff3f7a9fe364faab93b216da50a3214154f22a0a2b415b23a84c8169e8b636ee3600390950294850180546001600160a01b0319169190941617909255517ff3f7a9fe364faab93b216da50a3214154f22a0a2b415b23a84c8169e8b636ee483015591517ff3f7a9fe364faab93b216da50a3214154f22a0a2b415b23a84c8169e8b636ee590910155600780549161060183610d9e565b9091555050604080518381524260208201526001600160a01b038516917f987d620f307ff6b94d58743cb7a7509f24071586a77759b77c2d4e29f75a2f9a910160405180910390a250600192915050565b6000336106608582856108b5565b61066b858585610933565b506001949350505050565b6106a3604051806060016040528060006001600160a01b0316815260200160008152602001600081525090565b60085482106106ec5760405162461bcd60e51b8152602060048201526015602482015274496e646963652066756572612064652072616e676f60581b6044820152606401610454565b600882815481106106ff576106ff610db7565b600091825260209182902060408051606081018252600390930290910180546001600160a01b031683526001810154938301939093526002909201549181019190915292915050565b610750610992565b61075a60006109bf565b565b60606004805461034e90610d4e565b6000336103df818585610933565b610781610992565b6001600160a01b0381166107cc5760405162461bcd60e51b8152602060048201526012602482015271446972656363696f6e20696e76616c69646160701b6044820152606401610454565b600680546001600160a01b0319166001600160a01b0392909216919091179055565b600881815481106107fe57600080fd5b60009182526020909120600390910201805460018201546002909201546001600160a01b03909116925083565b610833610992565b6001600160a01b03811661085d57604051631e4fbdf760e01b815260006004820152602401610454565b610866816109bf565b50565b6108768383836001610a11565b505050565b6001600160a01b0382166108a55760405163ec442f0560e01b815260006004820152602401610454565b6108b160008383610ae6565b5050565b6001600160a01b03838116600090815260016020908152604080832093861683529290522054600019811461092d578181101561091e57604051637dc7a0d960e11b81526001600160a01b03841660048201526024810182905260448101839052606401610454565b61092d84848484036000610a11565b50505050565b6001600160a01b03831661095d57604051634b637e8f60e11b815260006004820152602401610454565b6001600160a01b0382166109875760405163ec442f0560e01b815260006004820152602401610454565b610876838383610ae6565b6005546001600160a01b0316331461075a5760405163118cdaa760e01b8152336004820152602401610454565b600580546001600160a01b038381166001600160a01b0319831681179093556040519116919082907f8be0079c531659141344cd1fd0a4f28419497f9722a3daafe3b4186f6b6457e090600090a35050565b6001600160a01b038416610a3b5760405163e602df0560e01b815260006004820152602401610454565b6001600160a01b038316610a6557604051634a1406b160e11b815260006004820152602401610454565b6001600160a01b038085166000908152600160209081526040808320938716835292905220829055801561092d57826001600160a01b0316846001600160a01b03167f8c5be1e5ebec7d5bd14f71427d1e84f3dd0314c0f7b2291e5b200ac8c7c3b92584604051610ad891815260200190565b60405180910390a350505050565b6001600160a01b038316610b11578060026000828254610b069190610dcd565b90915550610b839050565b6001600160a01b03831660009081526020819052604090205481811015610b645760405163391434e360e21b81526001600160a01b03851660048201526024810182905260448101839052606401610454565b6001600160a01b03841660009081526020819052604090209082900390555b6001600160a01b038216610b9f57600280548290039055610bbe565b6001600160a01b03821660009081526020819052604090208054820190555b816001600160a01b0316836001600160a01b03167fddf252ad1be2c89b69c2b068fc378daa952ba7f163c4a11628f55a4df523b3ef83604051610c0391815260200190565b60405180910390a3505050565b600060208083528351808285015260005b81811015610c3d57858101830151858201604001528201610c21565b506000604082860101526040601f19601f8301168501019250505092915050565b80356001600160a01b0381168114610c7557600080fd5b919050565b60008060408385031215610c8d57600080fd5b610c9683610c5e565b946020939093013593505050565b600080600060608486031215610cb957600080fd5b610cc284610c5e565b9250610cd060208501610c5e565b9150604084013590509250925092565b600060208284031215610cf257600080fd5b5035919050565b600060208284031215610d0b57600080fd5b610d1482610c5e565b9392505050565b60008060408385031215610d2e57600080fd5b610d3783610c5e565b9150610d4560208401610c5e565b90509250929050565b600181811c90821680610d6257607f821691505b602082108103610d8257634e487b7160e01b600052602260045260246000fd5b50919050565b634e487b7160e01b600052601160045260246000fd5b600060018201610db057610db0610d88565b5060010190565b634e487b7160e01b600052603260045260246000fd5b808201808211156103e5576103e5610d8856fea26469706673582212205d01d6adbf9334abe0b9ad2fefc7ea297685e30cd5a7a318cfbd0c2f50cf9d2164736f6c63430008140033",
  "devdoc": {
    "errors": {
      "ERC20InsufficientAllowance(address,uint256,uint256)": [
        {
          "details": "Indicates a failure with the `spender`s `allowance`. Used in transfers.",
          "params": {
            "allowance": "Amount of tokens a `spender` is allowed to operate with.",
            "needed": "Minimum amount required to perform a transfer.",
            "spender": "Address that may be allowed to operate on tokens without being their owner."
          }
        }
      ],
      "ERC20InsufficientBalance(address,uint256,uint256)": [
        {
          "details": "Indicates an error related to the current `balance` of a `sender`. Used in transfers.",
          "params": {
            "balance": "Current balance for the interacting account.",
            "needed": "Minimum amount required to perform a transfer.",
            "sender": "Address whose tokens are being transferred."
          }
        }
      ],
      "ERC20InvalidApprover(address)": [
        {
          "details": "Indicates a failure with the `approver` of a token to be approved. Used in approvals.",
          "params": {
            "approver": "Address initiating an approval operation."
          }
        }
      ],
      "ERC20InvalidReceiver(address)": [
        {
          "details": "Indicates a failure with the token `receiver`. Used in transfers.",
          "params": {
            "receiver": "Address to which tokens are being transferred."
          }
        }
      ],
      "ERC20InvalidSender(address)": [
        {
          "details": "Indicates a failure with the token `sender`. Used in transfers.",
          "params": {
            "sender": "Address whose tokens are being transferred."
          }
        }
      ],
      "ERC20InvalidSpender(address)": [
        {
          "details": "Indicates a failure with the `spender` to be approved. Used in approvals.",
          "params": {
            "spender": "Address that may be allowed to operate on tokens without being their owner."
          }
        }
      ],
      "OwnableInvalidOwner(address)": [
        {
          "details": "The owner is not a valid owner account. (eg. `address(0)`)"
        }
      ],
      "OwnableUnauthorizedAccount(address)": [
        {
          "details": "The caller account is not authorized to perform an operation."
        }
      ]
    },
    "events": {
      "Approval(address,address,uint256)": {
        "details": "Emitted when the allowance of a `spender` for an `owner` is set by a call to {approve}. `value` is the new allowance."
      },
      "Transfer(address,address,uint256)": {
        "details": "Emitted when `value` tokens are moved from one account (`from`) to another (`to`). Note that `value` may be zero."
      }
    },
    "kind": "dev",
    "methods": {
      "allowance(address,address)": {
        "details": "See {IERC20-allowance}."
      },
      "approve(address,uint256)": {
        "details": "See {IERC20-approve}. NOTE: If `value` is the maximum `uint256`, the allowance is not updated on `transferFrom`. This is semantically equivalent to an infinite approval. Requirements: - `spender` cannot be the zero address."
      },
      "balanceOf(address)": {
        "details": "See {IERC20-balanceOf}."
      },
      "decimals()": {
        "details": "Returns the number of decimals used to get its user representation. For example, if `decimals` equals `2`, a balance of `505` tokens should be displayed to a user as `5.05` (`505 / 10 ** 2`). Tokens usually opt for a value of 18, imitating the relationship between Ether and Wei. This is the default value returned by this function, unless it's overridden. NOTE: This information is only used for _display_ purposes: it in no way affects any of the arithmetic of the contract, including {IERC20-balanceOf} and {IERC20-transfer}."
      },
      "name()": {
        "details": "Returns the name of the token."
      },
      "owner()": {
        "details": "Returns the address of the current owner."
      },
      "renounceOwnership()": {
        "details": "Leaves the contract without owner. It will not be possible to call `onlyOwner` functions. Can only be called by the current owner. NOTE: Renouncing ownership will leave the contract without an owner, thereby disabling any functionality that is only available to the owner."
      },
      "symbol()": {
        "details": "Returns the symbol of the token, usually a shorter version of the name."
      },
      "totalSupply()": {
        "details": "See {IERC20-totalSupply}."
      },
      "transfer(address,uint256)": {
        "details": "See {IERC20-transfer}. Requirements: - `to` cannot be the zero address. - the caller must have a balance of at least `value`."
      },
      "transferFrom(address,address,uint256)": {
        "details": "See {IERC20-transferFrom}. Emits an {Approval} event indicating the updated allowance. This is not required by the EIP. See the note at the beginning of {ERC20}. NOTE: Does not update the allowance if the current allowance is the maximum `uint256`. Requirements: - `from` and `to` cannot be the zero address. - `from` must have a balance of at least `value`. - the caller must have allowance for ``from``'s tokens of at least `value`."
      },
      "transferOwnership(address)": {
        "details": "Transfers ownership of the contract to a new account (`newOwner`). Can only be called by the current owner."
      }
    },
    "version": 1
  },
  "userdoc": {
    "kind": "user",
    "methods": {},
    "version": 1
  },
  "storageLayout": {
    "storage": [
      {
        "astId": 307,
        "contract": "contracts/RBUToken.sol:RBUToken",
        "label": "_balances",
        "offset": 0,
        "slot": "0",
        "type": "t_mapping(t_address,t_uint256)"
      },
      {
        "astId": 313,
        "contract": "contracts/RBUToken.sol:RBUToken",
        "label": "_allowances",
        "offset": 0,
        "slot": "1",
        "type": "t_mapping(t_address,t_mapping(t_address,t_uint256))"
      },
      {
        "astId": 315,
        "contract": "contracts/RBUToken.sol:RBUToken",
        "label": "_totalSupply",
        "offset": 0,
        "slot": "2",
        "type": "t_uint256"
      },
      {
        "astId": 317,
        "contract": "contracts/RBUToken.sol:RBUToken",
        "label": "_name",
        "offset": 0,
        "slot": "3",
        "type": "t_string_storage"
      },
      {
        "astId": 319,
        "contract": "contracts/RBUToken.sol:RBUToken",
        "label": "_symbol",
        "offset": 0,
        "slot": "4",
        "type": "t_string_storage"
      },
      {
        "astId": 8,
        "contract": "contracts/RBUToken.sol:RBUToken",
        "label": "_owner",
        "offset": 0,
        "slot": "5",
        "type": "t_address"
      },
      {
        "astId": 3748,
        "contract": "contracts/RBUToken.sol:RBUToken",
        "label": "router",
        "offset": 0,
        "slot": "6",
        "type": "t_address"
      },
      {
        "astId": 3750,
        "contract": "contracts/RBUToken.sol:RBUToken",
        "label": "totalClaims",
        "offset": 0,
        "slot": "7",
        "type": "t_uint256"
      },
      {
        "astId": 3775,
        "contract": "contracts/RBUToken.sol:RBUToken",
        "label": "claimLogs",
        "offset": 0,
        "slot": "8",
        "type": "t_array(t_struct(ClaimLog)3771_storage)dyn_storage"
      }
    ],
    "types": {
      "t_address": {
        "encoding": "inplace",
        "label": "address",
        "numberOfBytes": "20"
      },
      "t_array(t_struct(ClaimLog)3771_storage)dyn_storage": {
        "base": "t_struct(ClaimLog)3771_storage",
        "encoding": "dynamic_array",
        "label": "struct RBUToken.ClaimLog[]",
        "numberOfBytes": "32"
      },
      "t_mapping(t_address,t_mapping(t_address,t_uint256))": {
        "encoding": "mapping",
        "key": "t_address",
        "label": "mapping(address => mapping(address => uint256))",
        "numberOfBytes": "32",
        "value": "t_mapping(t_address,t_uint256)"
      },
      "t_mapping(t_address,t_uint256)": {
        "encoding": "mapping",
        "key": "t_address",
        "label": "mapping(address => uint256)",
        "numberOfBytes": "32",
        "value": "t_uint256"
      },
      "t_string_storage": {
        "encoding": "bytes",
        "label": "string",
        "numberOfBytes": "32"
      },
      "t_struct(ClaimLog)3771_storage": {
        "encoding": "inplace",
        "label": "struct RBUToken.ClaimLog",
        "members": [
          {
            "astId": 3766,
            "contract": "contracts/RBUToken.sol:RBUToken",
            "label": "user",
            "offset": 0,
            "slot": "0",
            "type": "t_address"
          },
          {
            "astId": 3768,
            "contract": "contracts/RBUToken.sol:RBUToken",
            "label": "amount",
            "offset": 0,
            "slot": "1",
            "type": "t_uint256"
          },
          {
            "astId": 3770,
            "contract": "contracts/RBUToken.sol:RBUToken",
            "label": "timestamp",
            "offset": 0,
            "slot": "2",
            "type": "t_uint256"
          }
        ],
        "numberOfBytes": "96"
      },
      "t_uint256": {
        "encoding": "inplace",
        "label": "uint256",
        "numberOfBytes": "32"
      }
    }
  }
}