{
  "address": "0xfBa1aEc8DF5124477669AabDa6eaDdad4faDB48a",
  "abi": [
    {
      "inputs": [
        {
          "internalType": "address",
          "name": "_collateralWallet",
          "type": "address"
        },
        {
          "internalType": "address",
          "name": "_router",
          "type": "address"
        }
      ],
      "stateMutability": "nonpayable",
      "type": "constructor"
    },
    {
      "inputs": [
        {
          "internalType": "address",
          "name": "spender",
          "type": "address"
        },
        {
          "internalType": "uint256",
          "name": "allowance",
          "type": "uint256"
        },
        {
          "internalType": "uint256",
          "name": "needed",
          "type": "uint256"
        }
      ],
      "name": "ERC20InsufficientAllowance",
      "type": "error"
    },
    {
      "inputs": [
        {
          "internalType": "address",
          "name": "sender",
          "type": "address"
        },
        {
          "internalType": "uint256",
          "name": "balance",
          "type": "uint256"
        },
        {
          "internalType": "uint256",
          "name": "needed",
          "type": "uint256"
        }
      ],
      "name": "ERC20InsufficientBalance",
      "type": "error"
    },
    {
      "inputs": [
        {
          "internalType": "address",
          "name": "approver",
          "type": "address"
        }
      ],
      "name": "ERC20InvalidApprover",
      "type": "error"
    },
    {
      "inputs": [
        {
          "internalType": "address",
          "name": "receiver",
          "type": "address"
        }
      ],
      "name": "ERC20InvalidReceiver",
      "type": "error"
    },
    {
      "inputs": [
        {
          "internalType": "address",
          "name": "sender",
          "type": "address"
        }
      ],
      "name": "ERC20InvalidSender",
      "type": "error"
    },
    {
      "inputs": [
        {
          "internalType": "address",
          "name": "spender",
          "type": "address"
        }
      ],
      "name": "ERC20InvalidSpender",
      "type": "error"
    },
    {
      "inputs": [
        {
          "internalType": "address",
          "name": "owner",
          "type": "address"
        }
      ],
      "name": "OwnableInvalidOwner",
      "type": "error"
    },
    {
      "inputs": [
        {
          "internalType": "address",
          "name": "account",
          "type": "address"
        }
      ],
      "name": "OwnableUnauthorizedAccount",
      "type": "error"
    },
    {
      "anonymous": false,
      "inputs": [
        {
          "indexed": true,
          "internalType": "address",
          "name": "owner",
          "type": "address"
        },
        {
          "indexed": true,
          "internalType": "address",
          "name": "spender",
          "type": "address"
        },
        {
          "indexed": false,
          "internalType": "uint256",
          "name": "value",
          "type": "uint256"
        }
      ],
      "name": "Approval",
      "type": "event"
    },
    {
      "anonymous": false,
      "inputs": [
        {
          "indexed": true,
          "internalType": "address",
          "name": "previousOwner",
          "type": "address"
        },
        {
          "indexed": true,
          "internalType": "address",
          "name": "newOwner",
          "type": "address"
        }
      ],
      "name": "OwnershipTransferred",
      "type": "event"
    },
    {
      "anonymous": false,
      "inputs": [
        {
          "indexed": true,
          "internalType": "address",
          "name": "from",
          "type": "address"
        },
        {
          "indexed": true,
          "internalType": "address",
          "name": "to",
          "type": "address"
        },
        {
          "indexed": false,
          "internalType": "uint256",
          "name": "value",
          "type": "uint256"
        }
      ],
      "name": "Transfer",
      "type": "event"
    },
    {
      "inputs": [
        {
          "internalType": "address",
          "name": "owner",
          "type": "address"
        },
        {
          "internalType": "address",
          "name": "spender",
          "type": "address"
        }
      ],
      "name": "allowance",
      "outputs": [
        {
          "internalType": "uint256",
          "name": "",
          "type": "uint256"
        }
      ],
      "stateMutability": "view",
      "type": "function"
    },
    {
      "inputs": [
        {
          "internalType": "address",
          "name": "spender",
          "type": "address"
        },
        {
          "internalType": "uint256",
          "name": "value",
          "type": "uint256"
        }
      ],
      "name": "approve",
      "outputs": [
        {
          "internalType": "bool",
          "name": "",
          "type": "bool"
        }
      ],
      "stateMutability": "nonpayable",
      "type": "function"
    },
    {
      "inputs": [
        {
          "internalType": "address",
          "name": "account",
          "type": "address"
        }
      ],
      "name": "balanceOf",
      "outputs": [
        {
          "internalType": "uint256",
          "name": "",
          "type": "uint256"
        }
      ],
      "stateMutability": "view",
      "type": "function"
    },
    {
      "inputs": [],
      "name": "blockCooldown",
      "outputs": [
        {
          "internalType": "uint256",
          "name": "",
          "type": "uint256"
        }
      ],
      "stateMutability": "view",
      "type": "function"
    },
    {
      "inputs": [
        {
          "internalType": "uint256",
          "name": "",
          "type": "uint256"
        }
      ],
      "name": "blockSupply",
      "outputs": [
        {
          "internalType": "uint256",
          "name": "",
          "type": "uint256"
        }
      ],
      "stateMutability": "view",
      "type": "function"
    },
    {
      "inputs": [
        {
          "internalType": "address",
          "name": "burner",
          "type": "address"
        },
        {
          "internalType": "uint256",
          "name": "amount",
          "type": "uint256"
        }
      ],
      "name": "burnRBU",
      "outputs": [],
      "stateMutability": "nonpayable",
      "type": "function"
    },
    {
      "inputs": [],
      "name": "collateralFee",
      "outputs": [
        {
          "internalType": "uint256",
          "name": "",
          "type": "uint256"
        }
      ],
      "stateMutability": "view",
      "type": "function"
    },
    {
      "inputs": [],
      "name": "collateralWallet",
      "outputs": [
        {
          "internalType": "address",
          "name": "",
          "type": "address"
        }
      ],
      "stateMutability": "view",
      "type": "function"
    },
    {
      "inputs": [
        {
          "internalType": "address",
          "name": "",
          "type": "address"
        }
      ],
      "name": "cooldowns",
      "outputs": [
        {
          "internalType": "uint256",
          "name": "",
          "type": "uint256"
        }
      ],
      "stateMutability": "view",
      "type": "function"
    },
    {
      "inputs": [],
      "name": "decimals",
      "outputs": [
        {
          "internalType": "uint8",
          "name": "",
          "type": "uint8"
        }
      ],
      "stateMutability": "view",
      "type": "function"
    },
    {
      "inputs": [
        {
          "internalType": "address",
          "name": "user",
          "type": "address"
        }
      ],
      "name": "getCooldownRemaining",
      "outputs": [
        {
          "internalType": "uint256",
          "name": "",
          "type": "uint256"
        }
      ],
      "stateMutability": "view",
      "type": "function"
    },
    {
      "inputs": [],
      "name": "lastBlockTime",
      "outputs": [
        {
          "internalType": "uint256",
          "name": "",
          "type": "uint256"
        }
      ],
      "stateMutability": "view",
      "type": "function"
    },
    {
      "inputs": [
        {
          "internalType": "uint256",
          "name": "keysOwned",
          "type": "uint256"
        },
        {
          "internalType": "address",
          "name": "to",
          "type": "address"
        }
      ],
      "name": "mintTokens",
      "outputs": [],
      "stateMutability": "payable",
      "type": "function"
    },
    {
      "inputs": [],
      "name": "name",
      "outputs": [
        {
          "internalType": "string",
          "name": "",
          "type": "string"
        }
      ],
      "stateMutability": "view",
      "type": "function"
    },
    {
      "inputs": [],
      "name": "owner",
      "outputs": [
        {
          "internalType": "address",
          "name": "",
          "type": "address"
        }
      ],
      "stateMutability": "view",
      "type": "function"
    },
    {
      "inputs": [],
      "name": "renounceOwnership",
      "outputs": [],
      "stateMutability": "nonpayable",
      "type": "function"
    },
    {
      "inputs": [],
      "name": "router",
      "outputs": [
        {
          "internalType": "address",
          "name": "",
          "type": "address"
        }
      ],
      "stateMutability": "view",
      "type": "function"
    },
    {
      "inputs": [
        {
          "internalType": "address",
          "name": "newWallet",
          "type": "address"
        }
      ],
      "name": "setCollateralWallet",
      "outputs": [],
      "stateMutability": "nonpayable",
      "type": "function"
    },
    {
      "inputs": [
        {
          "internalType": "address",
          "name": "user",
          "type": "address"
        },
        {
          "internalType": "uint256",
          "name": "cooldownTime",
          "type": "uint256"
        }
      ],
      "name": "setCooldown",
      "outputs": [],
      "stateMutability": "nonpayable",
      "type": "function"
    },
    {
      "inputs": [
        {
          "internalType": "address",
          "name": "newRouter",
          "type": "address"
        }
      ],
      "name": "setRouter",
      "outputs": [],
      "stateMutability": "nonpayable",
      "type": "function"
    },
    {
      "inputs": [],
      "name": "symbol",
      "outputs": [
        {
          "internalType": "string",
          "name": "",
          "type": "string"
        }
      ],
      "stateMutability": "view",
      "type": "function"
    },
    {
      "inputs": [],
      "name": "tokensPerKey",
      "outputs": [
        {
          "internalType": "uint256",
          "name": "",
          "type": "uint256"
        }
      ],
      "stateMutability": "view",
      "type": "function"
    },
    {
      "inputs": [],
      "name": "totalSupply",
      "outputs": [
        {
          "internalType": "uint256",
          "name": "",
          "type": "uint256"
        }
      ],
      "stateMutability": "view",
      "type": "function"
    },
    {
      "inputs": [
        {
          "internalType": "address",
          "name": "to",
          "type": "address"
        },
        {
          "internalType": "uint256",
          "name": "value",
          "type": "uint256"
        }
      ],
      "name": "transfer",
      "outputs": [
        {
          "internalType": "bool",
          "name": "",
          "type": "bool"
        }
      ],
      "stateMutability": "nonpayable",
      "type": "function"
    },
    {
      "inputs": [
        {
          "internalType": "address",
          "name": "from",
          "type": "address"
        },
        {
          "internalType": "address",
          "name": "to",
          "type": "address"
        },
        {
          "internalType": "uint256",
          "name": "value",
          "type": "uint256"
        }
      ],
      "name": "transferFrom",
      "outputs": [
        {
          "internalType": "bool",
          "name": "",
          "type": "bool"
        }
      ],
      "stateMutability": "nonpayable",
      "type": "function"
    },
    {
      "inputs": [
        {
          "internalType": "address",
          "name": "newOwner",
          "type": "address"
        }
      ],
      "name": "transferOwnership",
      "outputs": [],
      "stateMutability": "nonpayable",
      "type": "function"
    }
  ],
  "transactionHash": "0x40d14a9539a59f4f868ee18167bcb5627cb9ee7ca2f42bccf544e422620d3a5d",
  "args": [
    "0x0000000000000000000000000000000000000000",
    "0x0000000000000000000000000000000000000000"
  ],
  "numDeployments": 1,
  "solcInputHash": "c67122c262d74c28c22680203aaba9ca",
  "bytecode": "0x60806040526201518060065565e35fa931a000600a553480156200002257600080fd5b50604051620015d4380380620015d48339810160408190526200004591620001c7565b737c46f2f14164cb725292a313612d42e421ba8c9960405180604001604052806008815260200167292b102a37b5b2b760c11b8152506040518060400160405280600381526020016214959560ea1b8152508160039081620000a89190620002a4565b506004620000b78282620002a4565b5050506001600160a01b038116620000e957604051631e4fbdf760e01b81526000600482015260240160405180910390fd5b620000f48162000158565b50600980546001600160a01b038085166001600160a01b031992831617909255600b8054928416929091169190911790554260075562000132601290565b6200013f90600a62000485565b6200014c9060066200049d565b60085550620004b79050565b600580546001600160a01b038381166001600160a01b0319831681179093556040519116919082907f8be0079c531659141344cd1fd0a4f28419497f9722a3daafe3b4186f6b6457e090600090a35050565b80516001600160a01b0381168114620001c257600080fd5b919050565b60008060408385031215620001db57600080fd5b620001e683620001aa565b9150620001f660208401620001aa565b90509250929050565b634e487b7160e01b600052604160045260246000fd5b600181811c908216806200022a57607f821691505b6020821081036200024b57634e487b7160e01b600052602260045260246000fd5b50919050565b601f8211156200029f57600081815260208120601f850160051c810160208610156200027a5750805b601f850160051c820191505b818110156200029b5782815560010162000286565b5050505b505050565b81516001600160401b03811115620002c057620002c0620001ff565b620002d881620002d1845462000215565b8462000251565b602080601f831160018114620003105760008415620002f75750858301515b600019600386901b1c1916600185901b1785556200029b565b600085815260208120601f198616915b82811015620003415788860151825594840194600190910190840162000320565b5085821015620003605787850151600019600388901b60f8161c191681555b5050505050600190811b01905550565b634e487b7160e01b600052601160045260246000fd5b600181815b80851115620003c7578160001904821115620003ab57620003ab62000370565b80851615620003b957918102915b93841c93908002906200038b565b509250929050565b600082620003e0575060016200047f565b81620003ef575060006200047f565b8160018114620004085760028114620004135762000433565b60019150506200047f565b60ff84111562000427576200042762000370565b50506001821b6200047f565b5060208310610133831016604e8410600b841016171562000458575081810a6200047f565b62000464838362000386565b80600019048211156200047b576200047b62000370565b0290505b92915050565b60006200049660ff841683620003cf565b9392505050565b80820281158282048414176200047f576200047f62000370565b61110d80620004c76000396000f3fe6080604052600436106101815760003560e01c80638892f8b4116100d1578063c0d786551161008a578063d7188dfb11610064578063d7188dfb14610455578063dd62ed3e14610475578063f2fde38b146104bb578063f887ea40146104db57600080fd5b8063c0d78655146103ff578063c85ea4ec1461041f578063ce5038e21461043557600080fd5b80638892f8b4146103425780638da5cb5b1461035857806395d89b411461038a5780639781a37e1461039f578063a9059cbb146103bf578063aa50bb9e146103df57600080fd5b80632947c4191161013e5780635344bb38116101185780635344bb38146102aa5780635b46900c146102d757806370a08231146102f7578063715018a61461032d57600080fd5b80632947c41914610262578063313ce56714610278578063457acf481461029457600080fd5b806301320fe21461018657806306fdde03146101c6578063095ea7b3146101e857806310c5b3281461021857806318160ddd1461022d57806323b872dd14610242575b600080fd5b34801561019257600080fd5b506101b36101a1366004610ddb565b600d6020526000908152604090205481565b6040519081526020015b60405180910390f35b3480156101d257600080fd5b506101db6104fb565b6040516101bd9190610dfd565b3480156101f457600080fd5b50610208610203366004610e4b565b61058d565b60405190151581526020016101bd565b61022b610226366004610e75565b6105a7565b005b34801561023957600080fd5b506002546101b3565b34801561024e57600080fd5b5061020861025d366004610ea1565b6107ba565b34801561026e57600080fd5b506101b360065481565b34801561028457600080fd5b50604051601281526020016101bd565b3480156102a057600080fd5b506101b3600a5481565b3480156102b657600080fd5b506101b36102c5366004610edd565b600c6020526000908152604090205481565b3480156102e357600080fd5b506101b36102f2366004610ddb565b6107de565b34801561030357600080fd5b506101b3610312366004610ddb565b6001600160a01b031660009081526020819052604090205490565b34801561033957600080fd5b5061022b610829565b34801561034e57600080fd5b506101b360085481565b34801561036457600080fd5b506005546001600160a01b03165b6040516001600160a01b0390911681526020016101bd565b34801561039657600080fd5b506101db61083d565b3480156103ab57600080fd5b5061022b6103ba366004610e4b565b61084c565b3480156103cb57600080fd5b506102086103da366004610e4b565b6108a0565b3480156103eb57600080fd5b5061022b6103fa366004610e4b565b6108ae565b34801561040b57600080fd5b5061022b61041a366004610ddb565b610954565b34801561042b57600080fd5b506101b360075481565b34801561044157600080fd5b5061022b610450366004610ddb565b61097e565b34801561046157600080fd5b50600954610372906001600160a01b031681565b34801561048157600080fd5b506101b3610490366004610ef6565b6001600160a01b03918216600090815260016020908152604080832093909416825291909152205490565b3480156104c757600080fd5b5061022b6104d6366004610ddb565b6109a8565b3480156104e757600080fd5b50600b54610372906001600160a01b031681565b60606003805461050a90610f20565b80601f016020809104026020016040519081016040528092919081815260200182805461053690610f20565b80156105835780601f1061055857610100808354040283529160200191610583565b820191906000526020600020905b81548152906001019060200180831161056657829003601f168201915b5050505050905090565b60003361059b8185856109e6565b60019150505b92915050565b600b546001600160a01b031633146105da5760405162461bcd60e51b81526004016105d190610f5a565b60405180910390fd5b6006546007546105ea9190610fa7565b42101561062b5760405162461bcd60e51b815260206004820152600f60248201526e436f6f6c646f776e2061637469766560881b60448201526064016105d1565b600a543410156106895760405162461bcd60e51b815260206004820152602360248201527f496e73756666696369656e742045544820666f7220636f6c6c61746572616c2060448201526266656560e81b60648201526084016105d1565b436000908152600c6020526040812054908190036106cb576000600854846106b19190610fba565b436000908152600c60205260409020819055426007559150505b6106d76012600a6110b5565b6106e2906002610fba565b8110156107315760405162461bcd60e51b815260206004820152601960248201527f496e73756666696369656e7420626c6f636b20737570706c790000000000000060448201526064016105d1565b6009546040516001600160a01b03909116903480156108fc02916000818181858888f1935050505015801561076a573d6000803e3d6000fd5b5060006107796012600a6110b5565b610784906002610fba565b905061079083826109f8565b436000908152600c6020526040812080548392906107af9084906110c4565b909155505050505050565b6000336107c8858285610a2e565b6107d3858585610aac565b506001949350505050565b6001600160a01b0381166000908152600d6020526040812054421061080557506000919050565b6001600160a01b0382166000908152600d60205260409020546105a19042906110c4565b610831610b0b565b61083b6000610b38565b565b60606004805461050a90610f20565b600b546001600160a01b031633146108765760405162461bcd60e51b81526004016105d190610f5a565b6108808142610fa7565b6001600160a01b039092166000908152600d602052604090209190915550565b60003361059b818585610aac565b600b546001600160a01b031633146108d85760405162461bcd60e51b81526004016105d190610f5a565b806108f8836001600160a01b031660009081526020819052604090205490565b10156109465760405162461bcd60e51b815260206004820181905260248201527f496e73756666696369656e74205242552062616c616e636520746f206275726e60448201526064016105d1565b6109508282610b8a565b5050565b61095c610b0b565b600b80546001600160a01b0319166001600160a01b0392909216919091179055565b610986610b0b565b600980546001600160a01b0319166001600160a01b0392909216919091179055565b6109b0610b0b565b6001600160a01b0381166109da57604051631e4fbdf760e01b8152600060048201526024016105d1565b6109e381610b38565b50565b6109f38383836001610bc0565b505050565b6001600160a01b038216610a225760405163ec442f0560e01b8152600060048201526024016105d1565b61095060008383610c95565b6001600160a01b038381166000908152600160209081526040808320938616835292905220546000198114610aa65781811015610a9757604051637dc7a0d960e11b81526001600160a01b038416600482015260248101829052604481018390526064016105d1565b610aa684848484036000610bc0565b50505050565b6001600160a01b038316610ad657604051634b637e8f60e11b8152600060048201526024016105d1565b6001600160a01b038216610b005760405163ec442f0560e01b8152600060048201526024016105d1565b6109f3838383610c95565b6005546001600160a01b0316331461083b5760405163118cdaa760e01b81523360048201526024016105d1565b600580546001600160a01b038381166001600160a01b0319831681179093556040519116919082907f8be0079c531659141344cd1fd0a4f28419497f9722a3daafe3b4186f6b6457e090600090a35050565b6001600160a01b038216610bb457604051634b637e8f60e11b8152600060048201526024016105d1565b61095082600083610c95565b6001600160a01b038416610bea5760405163e602df0560e01b8152600060048201526024016105d1565b6001600160a01b038316610c1457604051634a1406b160e11b8152600060048201526024016105d1565b6001600160a01b0380851660009081526001602090815260408083209387168352929052208290558015610aa657826001600160a01b0316846001600160a01b03167f8c5be1e5ebec7d5bd14f71427d1e84f3dd0314c0f7b2291e5b200ac8c7c3b92584604051610c8791815260200190565b60405180910390a350505050565b6001600160a01b038316610cc0578060026000828254610cb59190610fa7565b90915550610d329050565b6001600160a01b03831660009081526020819052604090205481811015610d135760405163391434e360e21b81526001600160a01b038516600482015260248101829052604481018390526064016105d1565b6001600160a01b03841660009081526020819052604090209082900390555b6001600160a01b038216610d4e57600280548290039055610d6d565b6001600160a01b03821660009081526020819052604090208054820190555b816001600160a01b0316836001600160a01b03167fddf252ad1be2c89b69c2b068fc378daa952ba7f163c4a11628f55a4df523b3ef83604051610db291815260200190565b60405180910390a3505050565b80356001600160a01b0381168114610dd657600080fd5b919050565b600060208284031215610ded57600080fd5b610df682610dbf565b9392505050565b600060208083528351808285015260005b81811015610e2a57858101830151858201604001528201610e0e565b506000604082860101526040601f19601f8301168501019250505092915050565b60008060408385031215610e5e57600080fd5b610e6783610dbf565b946020939093013593505050565b60008060408385031215610e8857600080fd5b82359150610e9860208401610dbf565b90509250929050565b600080600060608486031215610eb657600080fd5b610ebf84610dbf565b9250610ecd60208501610dbf565b9150604084013590509250925092565b600060208284031215610eef57600080fd5b5035919050565b60008060408385031215610f0957600080fd5b610f1283610dbf565b9150610e9860208401610dbf565b600181811c90821680610f3457607f821691505b602082108103610f5457634e487b7160e01b600052602260045260246000fd5b50919050565b6020808252601f908201527f416363657373207265737472696374656420746f2074686520726f7574657200604082015260600190565b634e487b7160e01b600052601160045260246000fd5b808201808211156105a1576105a1610f91565b80820281158282048414176105a1576105a1610f91565b600181815b8085111561100c578160001904821115610ff257610ff2610f91565b80851615610fff57918102915b93841c9390800290610fd6565b509250929050565b600082611023575060016105a1565b81611030575060006105a1565b816001811461104657600281146110505761106c565b60019150506105a1565b60ff84111561106157611061610f91565b50506001821b6105a1565b5060208310610133831016604e8410600b841016171561108f575081810a6105a1565b6110998383610fd1565b80600019048211156110ad576110ad610f91565b029392505050565b6000610df660ff841683611014565b818103818111156105a1576105a1610f9156fea26469706673582212202776fa9152975fd7211fb4d25e324eab0269479c7ffe3ac2855b4aa117dbc6ad64736f6c63430008140033",
  "devdoc": {
    "errors": {
      "ERC20InsufficientAllowance(address,uint256,uint256)": [
        {
          "details": "Indicates a failure with the `spender`s `allowance`. Used in transfers.",
          "params": {
            "allowance": "Amount of tokens a `spender` is allowed to operate with.",
            "needed": "Minimum amount required to perform a transfer.",
            "spender": "Address that may be allowed to operate on tokens without being their owner."
          }
        }
      ],
      "ERC20InsufficientBalance(address,uint256,uint256)": [
        {
          "details": "Indicates an error related to the current `balance` of a `sender`. Used in transfers.",
          "params": {
            "balance": "Current balance for the interacting account.",
            "needed": "Minimum amount required to perform a transfer.",
            "sender": "Address whose tokens are being transferred."
          }
        }
      ],
      "ERC20InvalidApprover(address)": [
        {
          "details": "Indicates a failure with the `approver` of a token to be approved. Used in approvals.",
          "params": {
            "approver": "Address initiating an approval operation."
          }
        }
      ],
      "ERC20InvalidReceiver(address)": [
        {
          "details": "Indicates a failure with the token `receiver`. Used in transfers.",
          "params": {
            "receiver": "Address to which tokens are being transferred."
          }
        }
      ],
      "ERC20InvalidSender(address)": [
        {
          "details": "Indicates a failure with the token `sender`. Used in transfers.",
          "params": {
            "sender": "Address whose tokens are being transferred."
          }
        }
      ],
      "ERC20InvalidSpender(address)": [
        {
          "details": "Indicates a failure with the `spender` to be approved. Used in approvals.",
          "params": {
            "spender": "Address that may be allowed to operate on tokens without being their owner."
          }
        }
      ],
      "OwnableInvalidOwner(address)": [
        {
          "details": "The owner is not a valid owner account. (eg. `address(0)`)"
        }
      ],
      "OwnableUnauthorizedAccount(address)": [
        {
          "details": "The caller account is not authorized to perform an operation."
        }
      ]
    },
    "events": {
      "Approval(address,address,uint256)": {
        "details": "Emitted when the allowance of a `spender` for an `owner` is set by a call to {approve}. `value` is the new allowance."
      },
      "Transfer(address,address,uint256)": {
        "details": "Emitted when `value` tokens are moved from one account (`from`) to another (`to`). Note that `value` may be zero."
      }
    },
    "kind": "dev",
    "methods": {
      "allowance(address,address)": {
        "details": "See {IERC20-allowance}."
      },
      "approve(address,uint256)": {
        "details": "See {IERC20-approve}. NOTE: If `value` is the maximum `uint256`, the allowance is not updated on `transferFrom`. This is semantically equivalent to an infinite approval. Requirements: - `spender` cannot be the zero address."
      },
      "balanceOf(address)": {
        "details": "See {IERC20-balanceOf}."
      },
      "decimals()": {
        "details": "Returns the number of decimals used to get its user representation. For example, if `decimals` equals `2`, a balance of `505` tokens should be displayed to a user as `5.05` (`505 / 10 ** 2`). Tokens usually opt for a value of 18, imitating the relationship between Ether and Wei. This is the default value returned by this function, unless it's overridden. NOTE: This information is only used for _display_ purposes: it in no way affects any of the arithmetic of the contract, including {IERC20-balanceOf} and {IERC20-transfer}."
      },
      "name()": {
        "details": "Returns the name of the token."
      },
      "owner()": {
        "details": "Returns the address of the current owner."
      },
      "renounceOwnership()": {
        "details": "Leaves the contract without owner. It will not be possible to call `onlyOwner` functions. Can only be called by the current owner. NOTE: Renouncing ownership will leave the contract without an owner, thereby disabling any functionality that is only available to the owner."
      },
      "symbol()": {
        "details": "Returns the symbol of the token, usually a shorter version of the name."
      },
      "totalSupply()": {
        "details": "See {IERC20-totalSupply}."
      },
      "transfer(address,uint256)": {
        "details": "See {IERC20-transfer}. Requirements: - `to` cannot be the zero address. - the caller must have a balance of at least `value`."
      },
      "transferFrom(address,address,uint256)": {
        "details": "See {IERC20-transferFrom}. Emits an {Approval} event indicating the updated allowance. This is not required by the EIP. See the note at the beginning of {ERC20}. NOTE: Does not update the allowance if the current allowance is the maximum `uint256`. Requirements: - `from` and `to` cannot be the zero address. - `from` must have a balance of at least `value`. - the caller must have allowance for ``from``'s tokens of at least `value`."
      },
      "transferOwnership(address)": {
        "details": "Transfers ownership of the contract to a new account (`newOwner`). Can only be called by the current owner."
      }
    },
    "version": 1
  },
  "userdoc": {
    "kind": "user",
    "methods": {},
    "version": 1
  },
  "storageLayout": {
    "storage": [
      {
        "astId": 1539,
        "contract": "contracts/RVToken.sol:RVToken",
        "label": "_balances",
        "offset": 0,
        "slot": "0",
        "type": "t_mapping(t_address,t_uint256)"
      },
      {
        "astId": 1545,
        "contract": "contracts/RVToken.sol:RVToken",
        "label": "_allowances",
        "offset": 0,
        "slot": "1",
        "type": "t_mapping(t_address,t_mapping(t_address,t_uint256))"
      },
      {
        "astId": 1547,
        "contract": "contracts/RVToken.sol:RVToken",
        "label": "_totalSupply",
        "offset": 0,
        "slot": "2",
        "type": "t_uint256"
      },
      {
        "astId": 1549,
        "contract": "contracts/RVToken.sol:RVToken",
        "label": "_name",
        "offset": 0,
        "slot": "3",
        "type": "t_string_storage"
      },
      {
        "astId": 1551,
        "contract": "contracts/RVToken.sol:RVToken",
        "label": "_symbol",
        "offset": 0,
        "slot": "4",
        "type": "t_string_storage"
      },
      {
        "astId": 8,
        "contract": "contracts/RVToken.sol:RVToken",
        "label": "_owner",
        "offset": 0,
        "slot": "5",
        "type": "t_address"
      },
      {
        "astId": 3628,
        "contract": "contracts/RVToken.sol:RVToken",
        "label": "blockCooldown",
        "offset": 0,
        "slot": "6",
        "type": "t_uint256"
      },
      {
        "astId": 3630,
        "contract": "contracts/RVToken.sol:RVToken",
        "label": "lastBlockTime",
        "offset": 0,
        "slot": "7",
        "type": "t_uint256"
      },
      {
        "astId": 3632,
        "contract": "contracts/RVToken.sol:RVToken",
        "label": "tokensPerKey",
        "offset": 0,
        "slot": "8",
        "type": "t_uint256"
      },
      {
        "astId": 3634,
        "contract": "contracts/RVToken.sol:RVToken",
        "label": "collateralWallet",
        "offset": 0,
        "slot": "9",
        "type": "t_address"
      },
      {
        "astId": 3637,
        "contract": "contracts/RVToken.sol:RVToken",
        "label": "collateralFee",
        "offset": 0,
        "slot": "10",
        "type": "t_uint256"
      },
      {
        "astId": 3639,
        "contract": "contracts/RVToken.sol:RVToken",
        "label": "router",
        "offset": 0,
        "slot": "11",
        "type": "t_address"
      },
      {
        "astId": 3643,
        "contract": "contracts/RVToken.sol:RVToken",
        "label": "blockSupply",
        "offset": 0,
        "slot": "12",
        "type": "t_mapping(t_uint256,t_uint256)"
      },
      {
        "astId": 3647,
        "contract": "contracts/RVToken.sol:RVToken",
        "label": "cooldowns",
        "offset": 0,
        "slot": "13",
        "type": "t_mapping(t_address,t_uint256)"
      }
    ],
    "types": {
      "t_address": {
        "encoding": "inplace",
        "label": "address",
        "numberOfBytes": "20"
      },
      "t_mapping(t_address,t_mapping(t_address,t_uint256))": {
        "encoding": "mapping",
        "key": "t_address",
        "label": "mapping(address => mapping(address => uint256))",
        "numberOfBytes": "32",
        "value": "t_mapping(t_address,t_uint256)"
      },
      "t_mapping(t_address,t_uint256)": {
        "encoding": "mapping",
        "key": "t_address",
        "label": "mapping(address => uint256)",
        "numberOfBytes": "32",
        "value": "t_uint256"
      },
      "t_mapping(t_uint256,t_uint256)": {
        "encoding": "mapping",
        "key": "t_uint256",
        "label": "mapping(uint256 => uint256)",
        "numberOfBytes": "32",
        "value": "t_uint256"
      },
      "t_string_storage": {
        "encoding": "bytes",
        "label": "string",
        "numberOfBytes": "32"
      },
      "t_uint256": {
        "encoding": "inplace",
        "label": "uint256",
        "numberOfBytes": "32"
      }
    }
  }
}