{
  "address": "0x39cfe1715846d19477779b4C1331e06cC27BCDdc",
  "abi": [
    {
      "inputs": [
        {
          "internalType": "address",
          "name": "_router",
          "type": "address"
        },
        {
          "internalType": "address",
          "name": "initialOwner",
          "type": "address"
        }
      ],
      "stateMutability": "nonpayable",
      "type": "constructor"
    },
    {
      "inputs": [
        {
          "internalType": "address",
          "name": "sender",
          "type": "address"
        },
        {
          "internalType": "uint256",
          "name": "balance",
          "type": "uint256"
        },
        {
          "internalType": "uint256",
          "name": "needed",
          "type": "uint256"
        },
        {
          "internalType": "uint256",
          "name": "tokenId",
          "type": "uint256"
        }
      ],
      "name": "ERC1155InsufficientBalance",
      "type": "error"
    },
    {
      "inputs": [
        {
          "internalType": "address",
          "name": "approver",
          "type": "address"
        }
      ],
      "name": "ERC1155InvalidApprover",
      "type": "error"
    },
    {
      "inputs": [
        {
          "internalType": "uint256",
          "name": "idsLength",
          "type": "uint256"
        },
        {
          "internalType": "uint256",
          "name": "valuesLength",
          "type": "uint256"
        }
      ],
      "name": "ERC1155InvalidArrayLength",
      "type": "error"
    },
    {
      "inputs": [
        {
          "internalType": "address",
          "name": "operator",
          "type": "address"
        }
      ],
      "name": "ERC1155InvalidOperator",
      "type": "error"
    },
    {
      "inputs": [
        {
          "internalType": "address",
          "name": "receiver",
          "type": "address"
        }
      ],
      "name": "ERC1155InvalidReceiver",
      "type": "error"
    },
    {
      "inputs": [
        {
          "internalType": "address",
          "name": "sender",
          "type": "address"
        }
      ],
      "name": "ERC1155InvalidSender",
      "type": "error"
    },
    {
      "inputs": [
        {
          "internalType": "address",
          "name": "operator",
          "type": "address"
        },
        {
          "internalType": "address",
          "name": "owner",
          "type": "address"
        }
      ],
      "name": "ERC1155MissingApprovalForAll",
      "type": "error"
    },
    {
      "inputs": [
        {
          "internalType": "address",
          "name": "owner",
          "type": "address"
        }
      ],
      "name": "OwnableInvalidOwner",
      "type": "error"
    },
    {
      "inputs": [
        {
          "internalType": "address",
          "name": "account",
          "type": "address"
        }
      ],
      "name": "OwnableUnauthorizedAccount",
      "type": "error"
    },
    {
      "inputs": [],
      "name": "ReentrancyGuardReentrantCall",
      "type": "error"
    },
    {
      "anonymous": false,
      "inputs": [
        {
          "indexed": true,
          "internalType": "address",
          "name": "account",
          "type": "address"
        },
        {
          "indexed": true,
          "internalType": "address",
          "name": "operator",
          "type": "address"
        },
        {
          "indexed": false,
          "internalType": "bool",
          "name": "approved",
          "type": "bool"
        }
      ],
      "name": "ApprovalForAll",
      "type": "event"
    },
    {
      "anonymous": false,
      "inputs": [
        {
          "indexed": true,
          "internalType": "address",
          "name": "user",
          "type": "address"
        },
        {
          "indexed": false,
          "internalType": "uint256",
          "name": "dominant",
          "type": "uint256"
        },
        {
          "indexed": false,
          "internalType": "uint256",
          "name": "recessive",
          "type": "uint256"
        }
      ],
      "name": "FactionNFTMinted",
      "type": "event"
    },
    {
      "anonymous": false,
      "inputs": [
        {
          "indexed": true,
          "internalType": "address",
          "name": "user",
          "type": "address"
        },
        {
          "indexed": false,
          "internalType": "uint256",
          "name": "tokenId",
          "type": "uint256"
        },
        {
          "indexed": false,
          "internalType": "string",
          "name": "upgradeType",
          "type": "string"
        }
      ],
      "name": "FactionNFTUpgraded",
      "type": "event"
    },
    {
      "anonymous": false,
      "inputs": [
        {
          "indexed": true,
          "internalType": "address",
          "name": "user",
          "type": "address"
        },
        {
          "indexed": false,
          "internalType": "uint256",
          "name": "factionTokenId",
          "type": "uint256"
        },
        {
          "indexed": false,
          "internalType": "uint256",
          "name": "rvTokenAmount",
          "type": "uint256"
        },
        {
          "indexed": false,
          "internalType": "uint256",
          "name": "burnPercentage",
          "type": "uint256"
        },
        {
          "indexed": false,
          "internalType": "uint256",
          "name": "stakePercentage",
          "type": "uint256"
        }
      ],
      "name": "FactionTokenObtained",
      "type": "event"
    },
    {
      "anonymous": false,
      "inputs": [
        {
          "indexed": true,
          "internalType": "address",
          "name": "previousOwner",
          "type": "address"
        },
        {
          "indexed": true,
          "internalType": "address",
          "name": "newOwner",
          "type": "address"
        }
      ],
      "name": "OwnershipTransferred",
      "type": "event"
    },
    {
      "anonymous": false,
      "inputs": [
        {
          "indexed": true,
          "internalType": "address",
          "name": "from",
          "type": "address"
        },
        {
          "indexed": false,
          "internalType": "uint256",
          "name": "id",
          "type": "uint256"
        },
        {
          "indexed": false,
          "internalType": "uint256",
          "name": "amount",
          "type": "uint256"
        }
      ],
      "name": "SoulboundTokenBurned",
      "type": "event"
    },
    {
      "anonymous": false,
      "inputs": [
        {
          "indexed": true,
          "internalType": "address",
          "name": "to",
          "type": "address"
        },
        {
          "indexed": false,
          "internalType": "uint256",
          "name": "id",
          "type": "uint256"
        },
        {
          "indexed": false,
          "internalType": "uint256",
          "name": "amount",
          "type": "uint256"
        }
      ],
      "name": "SoulboundTokenMinted",
      "type": "event"
    },
    {
      "anonymous": false,
      "inputs": [
        {
          "indexed": true,
          "internalType": "address",
          "name": "operator",
          "type": "address"
        },
        {
          "indexed": true,
          "internalType": "address",
          "name": "from",
          "type": "address"
        },
        {
          "indexed": true,
          "internalType": "address",
          "name": "to",
          "type": "address"
        },
        {
          "indexed": false,
          "internalType": "uint256[]",
          "name": "ids",
          "type": "uint256[]"
        },
        {
          "indexed": false,
          "internalType": "uint256[]",
          "name": "values",
          "type": "uint256[]"
        }
      ],
      "name": "TransferBatch",
      "type": "event"
    },
    {
      "anonymous": false,
      "inputs": [
        {
          "indexed": true,
          "internalType": "address",
          "name": "operator",
          "type": "address"
        },
        {
          "indexed": true,
          "internalType": "address",
          "name": "from",
          "type": "address"
        },
        {
          "indexed": true,
          "internalType": "address",
          "name": "to",
          "type": "address"
        },
        {
          "indexed": false,
          "internalType": "uint256",
          "name": "id",
          "type": "uint256"
        },
        {
          "indexed": false,
          "internalType": "uint256",
          "name": "value",
          "type": "uint256"
        }
      ],
      "name": "TransferSingle",
      "type": "event"
    },
    {
      "anonymous": false,
      "inputs": [
        {
          "indexed": false,
          "internalType": "string",
          "name": "value",
          "type": "string"
        },
        {
          "indexed": true,
          "internalType": "uint256",
          "name": "id",
          "type": "uint256"
        }
      ],
      "name": "URI",
      "type": "event"
    },
    {
      "inputs": [],
      "name": "AA_TOKEN",
      "outputs": [
        {
          "internalType": "uint256",
          "name": "",
          "type": "uint256"
        }
      ],
      "stateMutability": "view",
      "type": "function"
    },
    {
      "inputs": [],
      "name": "AE_TOKEN",
      "outputs": [
        {
          "internalType": "uint256",
          "name": "",
          "type": "uint256"
        }
      ],
      "stateMutability": "view",
      "type": "function"
    },
    {
      "inputs": [],
      "name": "EA_TOKEN",
      "outputs": [
        {
          "internalType": "uint256",
          "name": "",
          "type": "uint256"
        }
      ],
      "stateMutability": "view",
      "type": "function"
    },
    {
      "inputs": [],
      "name": "EE_TOKEN",
      "outputs": [
        {
          "internalType": "uint256",
          "name": "",
          "type": "uint256"
        }
      ],
      "stateMutability": "view",
      "type": "function"
    },
    {
      "inputs": [],
      "name": "LLAVE1_NFT",
      "outputs": [
        {
          "internalType": "uint256",
          "name": "",
          "type": "uint256"
        }
      ],
      "stateMutability": "view",
      "type": "function"
    },
    {
      "inputs": [],
      "name": "NFT_DOMINANTE",
      "outputs": [
        {
          "internalType": "uint256",
          "name": "",
          "type": "uint256"
        }
      ],
      "stateMutability": "view",
      "type": "function"
    },
    {
      "inputs": [],
      "name": "NFT_RECESIVO",
      "outputs": [
        {
          "internalType": "uint256",
          "name": "",
          "type": "uint256"
        }
      ],
      "stateMutability": "view",
      "type": "function"
    },
    {
      "inputs": [],
      "name": "RV_TOKEN",
      "outputs": [
        {
          "internalType": "uint256",
          "name": "",
          "type": "uint256"
        }
      ],
      "stateMutability": "view",
      "type": "function"
    },
    {
      "inputs": [
        {
          "internalType": "address",
          "name": "",
          "type": "address"
        }
      ],
      "name": "allowedMinters",
      "outputs": [
        {
          "internalType": "bool",
          "name": "",
          "type": "bool"
        }
      ],
      "stateMutability": "view",
      "type": "function"
    },
    {
      "inputs": [
        {
          "internalType": "address",
          "name": "account",
          "type": "address"
        },
        {
          "internalType": "uint256",
          "name": "id",
          "type": "uint256"
        }
      ],
      "name": "balanceOf",
      "outputs": [
        {
          "internalType": "uint256",
          "name": "",
          "type": "uint256"
        }
      ],
      "stateMutability": "view",
      "type": "function"
    },
    {
      "inputs": [
        {
          "internalType": "address[]",
          "name": "accounts",
          "type": "address[]"
        },
        {
          "internalType": "uint256[]",
          "name": "ids",
          "type": "uint256[]"
        }
      ],
      "name": "balanceOfBatch",
      "outputs": [
        {
          "internalType": "uint256[]",
          "name": "",
          "type": "uint256[]"
        }
      ],
      "stateMutability": "view",
      "type": "function"
    },
    {
      "inputs": [
        {
          "internalType": "address",
          "name": "from",
          "type": "address"
        },
        {
          "internalType": "uint256",
          "name": "id",
          "type": "uint256"
        },
        {
          "internalType": "uint256",
          "name": "amount",
          "type": "uint256"
        }
      ],
      "name": "burnSoulbound",
      "outputs": [],
      "stateMutability": "nonpayable",
      "type": "function"
    },
    {
      "inputs": [
        {
          "internalType": "uint256",
          "name": "",
          "type": "uint256"
        }
      ],
      "name": "factionTokenLogs",
      "outputs": [
        {
          "internalType": "address",
          "name": "user",
          "type": "address"
        },
        {
          "internalType": "uint256",
          "name": "tokenId",
          "type": "uint256"
        },
        {
          "internalType": "uint256",
          "name": "amount",
          "type": "uint256"
        },
        {
          "internalType": "uint256",
          "name": "timestamp",
          "type": "uint256"
        }
      ],
      "stateMutability": "view",
      "type": "function"
    },
    {
      "inputs": [],
      "name": "getFactionTokenLogs",
      "outputs": [
        {
          "components": [
            {
              "internalType": "address",
              "name": "user",
              "type": "address"
            },
            {
              "internalType": "uint256",
              "name": "tokenId",
              "type": "uint256"
            },
            {
              "internalType": "uint256",
              "name": "amount",
              "type": "uint256"
            },
            {
              "internalType": "uint256",
              "name": "timestamp",
              "type": "uint256"
            }
          ],
          "internalType": "struct UnifiedFactionToken.MintLog[]",
          "name": "",
          "type": "tuple[]"
        }
      ],
      "stateMutability": "view",
      "type": "function"
    },
    {
      "inputs": [
        {
          "internalType": "address",
          "name": "user",
          "type": "address"
        }
      ],
      "name": "getUserFactionTokenLogs",
      "outputs": [
        {
          "components": [
            {
              "internalType": "address",
              "name": "user",
              "type": "address"
            },
            {
              "internalType": "uint256",
              "name": "tokenId",
              "type": "uint256"
            },
            {
              "internalType": "uint256",
              "name": "amount",
              "type": "uint256"
            },
            {
              "internalType": "uint256",
              "name": "timestamp",
              "type": "uint256"
            }
          ],
          "internalType": "struct UnifiedFactionToken.MintLog[]",
          "name": "",
          "type": "tuple[]"
        }
      ],
      "stateMutability": "view",
      "type": "function"
    },
    {
      "inputs": [
        {
          "internalType": "address",
          "name": "account",
          "type": "address"
        },
        {
          "internalType": "address",
          "name": "operator",
          "type": "address"
        }
      ],
      "name": "isApprovedForAll",
      "outputs": [
        {
          "internalType": "bool",
          "name": "",
          "type": "bool"
        }
      ],
      "stateMutability": "view",
      "type": "function"
    },
    {
      "inputs": [
        {
          "internalType": "uint256",
          "name": "dominantFaction",
          "type": "uint256"
        },
        {
          "internalType": "uint256",
          "name": "recessiveFaction",
          "type": "uint256"
        }
      ],
      "name": "mintFactionNFT",
      "outputs": [],
      "stateMutability": "nonpayable",
      "type": "function"
    },
    {
      "inputs": [
        {
          "internalType": "address",
          "name": "to",
          "type": "address"
        },
        {
          "internalType": "uint256",
          "name": "id",
          "type": "uint256"
        },
        {
          "internalType": "uint256",
          "name": "amount",
          "type": "uint256"
        }
      ],
      "name": "mintSoulbound",
      "outputs": [],
      "stateMutability": "nonpayable",
      "type": "function"
    },
    {
      "inputs": [
        {
          "internalType": "address",
          "name": "user",
          "type": "address"
        },
        {
          "internalType": "uint256",
          "name": "optionSelected",
          "type": "uint256"
        }
      ],
      "name": "obtainFactionToken",
      "outputs": [],
      "stateMutability": "nonpayable",
      "type": "function"
    },
    {
      "inputs": [],
      "name": "owner",
      "outputs": [
        {
          "internalType": "address",
          "name": "",
          "type": "address"
        }
      ],
      "stateMutability": "view",
      "type": "function"
    },
    {
      "inputs": [],
      "name": "renounceOwnership",
      "outputs": [],
      "stateMutability": "nonpayable",
      "type": "function"
    },
    {
      "inputs": [],
      "name": "router",
      "outputs": [
        {
          "internalType": "address",
          "name": "",
          "type": "address"
        }
      ],
      "stateMutability": "view",
      "type": "function"
    },
    {
      "inputs": [
        {
          "internalType": "address",
          "name": "from",
          "type": "address"
        },
        {
          "internalType": "address",
          "name": "to",
          "type": "address"
        },
        {
          "internalType": "uint256[]",
          "name": "ids",
          "type": "uint256[]"
        },
        {
          "internalType": "uint256[]",
          "name": "values",
          "type": "uint256[]"
        },
        {
          "internalType": "bytes",
          "name": "data",
          "type": "bytes"
        }
      ],
      "name": "safeBatchTransferFrom",
      "outputs": [],
      "stateMutability": "nonpayable",
      "type": "function"
    },
    {
      "inputs": [
        {
          "internalType": "address",
          "name": "from",
          "type": "address"
        },
        {
          "internalType": "address",
          "name": "to",
          "type": "address"
        },
        {
          "internalType": "uint256",
          "name": "id",
          "type": "uint256"
        },
        {
          "internalType": "uint256",
          "name": "value",
          "type": "uint256"
        },
        {
          "internalType": "bytes",
          "name": "data",
          "type": "bytes"
        }
      ],
      "name": "safeTransferFrom",
      "outputs": [],
      "stateMutability": "nonpayable",
      "type": "function"
    },
    {
      "inputs": [
        {
          "internalType": "address",
          "name": "minter",
          "type": "address"
        },
        {
          "internalType": "bool",
          "name": "allowed",
          "type": "bool"
        }
      ],
      "name": "setAllowedMinter",
      "outputs": [],
      "stateMutability": "nonpayable",
      "type": "function"
    },
    {
      "inputs": [
        {
          "internalType": "address",
          "name": "operator",
          "type": "address"
        },
        {
          "internalType": "bool",
          "name": "approved",
          "type": "bool"
        }
      ],
      "name": "setApprovalForAll",
      "outputs": [],
      "stateMutability": "nonpayable",
      "type": "function"
    },
    {
      "inputs": [
        {
          "internalType": "string",
          "name": "newURI",
          "type": "string"
        }
      ],
      "name": "setURI",
      "outputs": [],
      "stateMutability": "nonpayable",
      "type": "function"
    },
    {
      "inputs": [
        {
          "internalType": "bytes4",
          "name": "interfaceId",
          "type": "bytes4"
        }
      ],
      "name": "supportsInterface",
      "outputs": [
        {
          "internalType": "bool",
          "name": "",
          "type": "bool"
        }
      ],
      "stateMutability": "view",
      "type": "function"
    },
    {
      "inputs": [
        {
          "internalType": "address",
          "name": "newOwner",
          "type": "address"
        }
      ],
      "name": "transferOwnership",
      "outputs": [],
      "stateMutability": "nonpayable",
      "type": "function"
    },
    {
      "inputs": [
        {
          "internalType": "string",
          "name": "upgradeType",
          "type": "string"
        }
      ],
      "name": "upgradeFactionNFT",
      "outputs": [],
      "stateMutability": "nonpayable",
      "type": "function"
    },
    {
      "inputs": [
        {
          "internalType": "uint256",
          "name": "",
          "type": "uint256"
        }
      ],
      "name": "uri",
      "outputs": [
        {
          "internalType": "string",
          "name": "",
          "type": "string"
        }
      ],
      "stateMutability": "view",
      "type": "function"
    },
    {
      "inputs": [
        {
          "internalType": "address",
          "name": "",
          "type": "address"
        }
      ],
      "name": "userFactionNFTs",
      "outputs": [
        {
          "internalType": "uint256",
          "name": "dominant",
          "type": "uint256"
        },
        {
          "internalType": "uint256",
          "name": "recessive",
          "type": "uint256"
        },
        {
          "internalType": "bool",
          "name": "exists",
          "type": "bool"
        }
      ],
      "stateMutability": "view",
      "type": "function"
    },
    {
      "inputs": [
        {
          "internalType": "address",
          "name": "",
          "type": "address"
        },
        {
          "internalType": "uint256",
          "name": "",
          "type": "uint256"
        }
      ],
      "name": "userFactionTokenLogs",
      "outputs": [
        {
          "internalType": "address",
          "name": "user",
          "type": "address"
        },
        {
          "internalType": "uint256",
          "name": "tokenId",
          "type": "uint256"
        },
        {
          "internalType": "uint256",
          "name": "amount",
          "type": "uint256"
        },
        {
          "internalType": "uint256",
          "name": "timestamp",
          "type": "uint256"
        }
      ],
      "stateMutability": "view",
      "type": "function"
    },
    {
      "inputs": [
        {
          "internalType": "address",
          "name": "",
          "type": "address"
        }
      ],
      "name": "userScores",
      "outputs": [
        {
          "internalType": "int256",
          "name": "reputation",
          "type": "int256"
        },
        {
          "internalType": "int256",
          "name": "wealth",
          "type": "int256"
        },
        {
          "internalType": "int256",
          "name": "total",
          "type": "int256"
        }
      ],
      "stateMutability": "view",
      "type": "function"
    }
  ],
  "transactionHash": "0x3f3416f6c53e5c095ab14cdbdff4da2f56d045350886a48654bc3e644b25616d",
  "args": [
    "0x0000000000000000000000000000000000000000",
    "0x8869685b9a5bF8a8450B9fE9944E5E3D287d8F77"
  ],
  "numDeployments": 1,
  "solcInputHash": "c67122c262d74c28c22680203aaba9ca",
  "bytecode": "0x60806040523480156200001157600080fd5b506040516200276e3803806200276e833981016040819052620000349162000143565b8060405180606001604052806027815260200162002747602791396200005a81620000c2565b506001600160a01b0381166200008a57604051631e4fbdf760e01b81526000600482015260240160405180910390fd5b6200009581620000d4565b50506001600455600580546001600160a01b0319166001600160a01b0392909216919091179055620002ec565b6002620000d0828262000220565b5050565b600380546001600160a01b038381166001600160a01b0319831681179093556040519116919082907f8be0079c531659141344cd1fd0a4f28419497f9722a3daafe3b4186f6b6457e090600090a35050565b80516001600160a01b03811681146200013e57600080fd5b919050565b600080604083850312156200015757600080fd5b620001628362000126565b9150620001726020840162000126565b90509250929050565b634e487b7160e01b600052604160045260246000fd5b600181811c90821680620001a657607f821691505b602082108103620001c757634e487b7160e01b600052602260045260246000fd5b50919050565b601f8211156200021b57600081815260208120601f850160051c81016020861015620001f65750805b601f850160051c820191505b81811015620002175782815560010162000202565b5050505b505050565b81516001600160401b038111156200023c576200023c6200017b565b62000254816200024d845462000191565b84620001cd565b602080601f8311600181146200028c5760008415620002735750858301515b600019600386901b1c1916600185901b17855562000217565b600085815260208120601f198616915b82811015620002bd578886015182559484019460019091019084016200029c565b5085821015620002dc5787850151600019600388901b60f8161c191681555b5050505050600190811b01905550565b61244b80620002fc6000396000f3fe608060405234801561001057600080fd5b50600436106102055760003560e01c8063715018a61161011a578063b59208fd116100ad578063ea8215481161007c578063ea821548146104d9578063f242432a146104ec578063f2fde38b146104ff578063f76c112214610512578063f887ea401461051a57600080fd5b8063b59208fd14610498578063c76d9079146104ab578063ca53b939146104b3578063e985e9c5146104c657600080fd5b806392a0859c116100e957806392a0859c14610457578063a1e92c951461045f578063a22cb46514610472578063a6e4938a1461048557600080fd5b8063715018a61461041a5780637c33481e146104225780638da5cb5b1461042a5780638e1c15d91461044f57600080fd5b80632eb2c2d61161019d5780634e1273f41161016c5780634e1273f4146103705780635c39e381146103905780635f2a6880146103b05780636af9c205146103ff5780636d1e87e91461041257600080fd5b80632eb2c2d61461031f5780632f608f5414610332578063423afa661461034557806347e5518d1461036857600080fd5b80631413d4c0116101d95780631413d4c0146102885780632236b5c5146102d25780632d105dc7146102da5780632d7979cb1461031757600080fd5b8062fdd58e1461020a57806301ffc9a71461023057806302fe5305146102535780630e89341c14610268575b600080fd5b61021d610218366004611b2f565b61052d565b6040519081526020015b60405180910390f35b61024361023e366004611b6f565b610555565b6040519015158152602001610227565b610266610261366004611c32565b6105a5565b005b61027b610276366004611c83565b6105b9565b6040516102279190611cec565b6102b7610296366004611cff565b60076020526000908152604090208054600182015460029092015490919083565b60408051938452602084019290925290820152606001610227565b61021d600781565b6102ed6102e8366004611b2f565b61064d565b604080516001600160a01b0390951685526020850193909352918301526060820152608001610227565b61021d600281565b61026661032d366004611dc9565b61069d565b610266610340366004611e73565b610709565b610243610353366004611cff565b60066020526000908152604090205460ff1681565b61021d600581565b61038361037e366004611e95565b6108f9565b6040516102279190611f90565b6103a361039e366004611cff565b6109ce565b6040516102279190611fa3565b6103e26103be366004611cff565b60086020526000908152604090208054600182015460029092015490919060ff1683565b604080519384526020840192909252151590820152606001610227565b61026661040d366004612010565b610a6e565b61021d600381565b610266610aa1565b61021d600081565b6003546001600160a01b03165b6040516001600160a01b039091168152602001610227565b61021d600181565b61021d600481565b61026661046d36600461204c565b610ab5565b610266610480366004612010565b610b56565b61026661049336600461204c565b610b61565b6102ed6104a6366004611c83565b610c22565b6103a3610c66565b6102666104c1366004611b2f565b610cf0565b6102436104d436600461207f565b61103a565b6102666104e7366004611c32565b611068565b6102666104fa3660046120b2565b6112f7565b61026661050d366004611cff565b611356565b61021d600681565b600554610437906001600160a01b031681565b6000818152602081815260408083206001600160a01b03861684529091529020545b92915050565b60006001600160e01b03198216636cdb3d1360e11b148061058657506001600160e01b031982166303a24d0760e21b145b8061054f57506301ffc9a760e01b6001600160e01b031983161461054f565b6105ad611391565b6105b6816113be565b50565b6060600280546105c890612117565b80601f01602080910402602001604051908101604052809291908181526020018280546105f490612117565b80156106415780601f1061061657610100808354040283529160200191610641565b820191906000526020600020905b81548152906001019060200180831161062457829003601f168201915b50505050509050919050565b600a602052816000526040600020818154811061066957600080fd5b600091825260209091206004909102018054600182015460028301546003909301546001600160a01b039092169450925084565b336001600160a01b03861681148015906106be57506106bc868261103a565b155b156106f45760405163711bec9160e11b81526001600160a01b038083166004830152871660248201526044015b60405180910390fd5b61070186868686866113ca565b505050505050565b610711611431565b8082036107605760405162461bcd60e51b815260206004820152601e60248201527f46616363696f6e657320646562656e20736572206469666572656e746573000060448201526064016106eb565b601561076c338461052d565b10156107ba5760405162461bcd60e51b815260206004820152601f60248201527f546f6b656e7320646f6d696e616e74657320696e737566696369656e7465730060448201526064016106eb565b600b6107c6338361052d565b10156108145760405162461bcd60e51b815260206004820152601e60248201527f546f6b656e7320726563657369766f7320696e737566696369656e746573000060448201526064016106eb565b6108203383601461145b565b61082c3382600a61145b565b60408051606081018252838152602080820184815260018385018181523360008181526008865287902095518655925191850191909155516002909301805460ff191693151593909317909255825185815290810184905290917f85c1c88139a0fb6d22913c7504962b6f9fa1c110086ac050fe058e2c14c40b33910160405180910390a26108ce3360056001604051806020016040528060008152506114c3565b6108eb3360066001604051806020016040528060008152506114c3565b6108f56001600455565b5050565b6060815183511461092a5781518351604051635b05999160e01b8152600481019290925260248201526044016106eb565b6000835167ffffffffffffffff81111561094657610946611b93565b60405190808252806020026020018201604052801561096f578160200160208202803683370190505b50905060005b84518110156109c6576020808202860101516109999060208084028701015161052d565b8282815181106109ab576109ab612151565b60209081029190910101526109bf8161217d565b9050610975565b509392505050565b6001600160a01b0381166000908152600a60209081526040808320805482518185028101850190935280835260609492939192909184015b82821015610a63576000848152602090819020604080516080810182526004860290920180546001600160a01b03168352600180820154848601526002820154928401929092526003015460608301529083529092019101610a06565b505050509050919050565b610a76611391565b6001600160a01b03919091166000908152600660205260409020805460ff1916911515919091179055565b610aa9611391565b610ab36000611520565b565b6005546001600160a01b03163314610adf5760405162461bcd60e51b81526004016106eb90612196565b610ae7611431565b610b02838383604051806020016040528060008152506114c3565b60408051838152602081018390526001600160a01b038516917faa65ebe4613147dd82485f5bc2f7908a1b5c372d5a3890cccebaace1c7f9df7091015b60405180910390a2610b516001600455565b505050565b6108f5338383611572565b610b69611431565b336001600160a01b0384161480610b8a57506005546001600160a01b031633145b610bd65760405162461bcd60e51b815260206004820152601960248201527f4e6f206175746f72697a61646f2070617261207175656d61720000000000000060448201526064016106eb565b610be183838361145b565b60408051838152602081018390526001600160a01b038516917f6616920f72e02ad451453c9436720d63a00fd37c938262a7ed00150f193af4fb9101610b3f565b60098181548110610c3257600080fd5b600091825260209091206004909102018054600182015460028301546003909301546001600160a01b039092169350919084565b60606009805480602002602001604051908101604052809291908181526020016000905b82821015610ce7576000848152602090819020604080516080810182526004860290920180546001600160a01b03168352600180820154848601526002820154928401929092526003015460608301529083529092019101610c8a565b50505050905090565b6005546001600160a01b03163314610d1a5760405162461bcd60e51b81526004016106eb90612196565b610d22611431565b6000610d2f83600761052d565b11610d755760405162461bcd60e51b81526020600482015260166024820152755365207265717569657265204e4654204c6c6176653160501b60448201526064016106eb565b6001610d8283600061052d565b1015610dd05760405162461bcd60e51b815260206004820152601f60248201527f536520726571756965726520616c206d656e6f73203120525620544f4b454e0060448201526064016106eb565b600080600083600103610dea576001925060649150610e6a565b83600203610dfe5750600291506064610e6a565b83600303610e16575060039150603c90506028610e6a565b83600403610e2e57506004915060289050603c610e6a565b60405162461bcd60e51b81526020600482015260116024820152704f706369c3b36e20696e76c3a16c69646160781b60448201526064016106eb565b60408051608080820183526001600160a01b0380891680845260208085018981526001868801818152426060808a0182815260098054808701825560009182529b5160049c8d027f6e1540171b6c0c960b71a7020d9f60077f6af931a8bbf590da0223dacf75c7af81018054928d166001600160a01b031993841617905597517f6e1540171b6c0c960b71a7020d9f60077f6af931a8bbf590da0223dacf75c7b089015594517f6e1540171b6c0c960b71a7020d9f60077f6af931a8bbf590da0223dacf75c7b188015590517f6e1540171b6c0c960b71a7020d9f60077f6af931a8bbf590da0223dacf75c7b290960195909555868552600a86528a85208b51998a018c52878a528987018f81528a8d01868152928b01938452815480870183559187529690952098519490990290970180549390961692169190911784559051838201559351600283015591516003919091015591517ffa9f6d258d23a87b5e27b9cefbb5481634811d063f9f87f60e1b150a21eee87b91611009918791908790879093845260208401929092526040830152606082015260800190565b60405180910390a261102d85846001604051806020016040528060008152506114c3565b5050506108f56001600455565b6001600160a01b03918216600090815260016020908152604080832093909416825291909152205460ff1690565b611070611431565b336000908152600860205260409020600281015460ff166110d35760405162461bcd60e51b815260206004820152601b60248201527f4e6f20706f73656520756e204e4654206465206661636369c3b36e000000000060448201526064016106eb565b60405167191bdb5a5b985b9d60c21b6020820152602801604051602081830303815290604052805190602001208260405160200161111191906121d9565b604051602081830303815290604052805190602001200361119f57601461113c33836000015461052d565b101561118a5760405162461bcd60e51b815260206004820152601f60248201527f546f6b656e7320646f6d696e616e74657320696e737566696369656e7465730060448201526064016106eb565b61119a338260000154601461145b565b6112af565b6040516872656365737369766560b81b602082015260290160405160208183030381529060405280519060200120826040516020016111de91906121d9565b604051602081830303815290604052805190602001200361126757600a61120933836001015461052d565b10156112575760405162461bcd60e51b815260206004820152601e60248201527f546f6b656e7320726563657369766f7320696e737566696369656e746573000060448201526064016106eb565b61119a338260010154600a61145b565b60405162461bcd60e51b815260206004820152601760248201527f5449504f204445204d454a4f524120494e56414c49444f00000000000000000060448201526064016106eb565b805460405133917fce1aef6a965399d148b30afdb234d1c391e963120620c9805d40eb02605f8138916112e4919086906121f5565b60405180910390a2506105b66001600455565b336001600160a01b03861681148015906113185750611316868261103a565b155b156113495760405163711bec9160e11b81526001600160a01b038083166004830152871660248201526044016106eb565b6107018686868686611608565b61135e611391565b6001600160a01b03811661138857604051631e4fbdf760e01b8152600060048201526024016106eb565b6105b681611520565b6003546001600160a01b03163314610ab35760405163118cdaa760e01b81523360048201526024016106eb565b60026108f58282612254565b6001600160a01b0384166113f457604051632bfa23e760e11b8152600060048201526024016106eb565b6001600160a01b03851661141d57604051626a0d4560e21b8152600060048201526024016106eb565b61142a8585858585611696565b5050505050565b60026004540361145457604051633ee5aeb560e01b815260040160405180910390fd5b6002600455565b6001600160a01b03831661148457604051626a0d4560e21b8152600060048201526024016106eb565b604080516001808252602082018590528183019081526060820184905260a0820190925260006080820181815291929161142a91879185908590611696565b6001600160a01b0384166114ed57604051632bfa23e760e11b8152600060048201526024016106eb565b60408051600180825260208201869052818301908152606082018590526080820190925290610701600087848487611696565b600380546001600160a01b038381166001600160a01b0319831681179093556040519116919082907f8be0079c531659141344cd1fd0a4f28419497f9722a3daafe3b4186f6b6457e090600090a35050565b6001600160a01b03821661159b5760405162ced3e160e81b8152600060048201526024016106eb565b6001600160a01b03838116600081815260016020908152604080832094871680845294825291829020805460ff191686151590811790915591519182527f17307eab39ab6107e8899845ad3d59bd9653f200f220920489ca2b5937696c31910160405180910390a3505050565b6001600160a01b03841661163257604051632bfa23e760e11b8152600060048201526024016106eb565b6001600160a01b03851661165b57604051626a0d4560e21b8152600060048201526024016106eb565b6040805160018082526020820186905281830190815260608201859052608082019092529061168d8787848487611696565b50505050505050565b6116a2858585856116e9565b6001600160a01b0384161561142a57825133906001036116db57602084810151908401516116d4838989858589611906565b5050610701565b610701818787878787611a2a565b80518251146117185781518151604051635b05999160e01b8152600481019290925260248201526044016106eb565b3360005b8351811015611827576020818102858101820151908501909101516001600160a01b038816156117cf576000828152602081815260408083206001600160a01b038c168452909152902054818110156117a8576040516303dee4c560e01b81526001600160a01b038a1660048201526024810182905260448101839052606481018490526084016106eb565b6000838152602081815260408083206001600160a01b038d16845290915290209082900390555b6001600160a01b03871615611814576000828152602081815260408083206001600160a01b038b1684529091528120805483929061180e908490612314565b90915550505b5050806118209061217d565b905061171c565b5082516001036118a85760208301516000906020840151909150856001600160a01b0316876001600160a01b0316846001600160a01b03167fc3d58168c5ae7397731d063d5bbf3d657854427343f4c083240f7aacaa2d0f628585604051611899929190918252602082015260400190565b60405180910390a4505061142a565b836001600160a01b0316856001600160a01b0316826001600160a01b03167f4a39dc06d4c0dbc64b70af90fd698a233a518aa5d07e595d983b8c0526c8f7fb86866040516118f7929190612327565b60405180910390a45050505050565b6001600160a01b0384163b156107015760405163f23a6e6160e01b81526001600160a01b0385169063f23a6e619061194a9089908990889088908890600401612355565b6020604051808303816000875af1925050508015611985575060408051601f3d908101601f191682019092526119829181019061239a565b60015b6119ee573d8080156119b3576040519150601f19603f3d011682016040523d82523d6000602084013e6119b8565b606091505b5080516000036119e657604051632bfa23e760e11b81526001600160a01b03861660048201526024016106eb565b805181602001fd5b6001600160e01b0319811663f23a6e6160e01b1461168d57604051632bfa23e760e11b81526001600160a01b03861660048201526024016106eb565b6001600160a01b0384163b156107015760405163bc197c8160e01b81526001600160a01b0385169063bc197c8190611a6e90899089908890889088906004016123b7565b6020604051808303816000875af1925050508015611aa9575060408051601f3d908101601f19168201909252611aa69181019061239a565b60015b611ad7573d8080156119b3576040519150601f19603f3d011682016040523d82523d6000602084013e6119b8565b6001600160e01b0319811663bc197c8160e01b1461168d57604051632bfa23e760e11b81526001600160a01b03861660048201526024016106eb565b80356001600160a01b0381168114611b2a57600080fd5b919050565b60008060408385031215611b4257600080fd5b611b4b83611b13565b946020939093013593505050565b6001600160e01b0319811681146105b657600080fd5b600060208284031215611b8157600080fd5b8135611b8c81611b59565b9392505050565b634e487b7160e01b600052604160045260246000fd5b604051601f8201601f1916810167ffffffffffffffff81118282101715611bd257611bd2611b93565b604052919050565b600067ffffffffffffffff831115611bf457611bf4611b93565b611c07601f8401601f1916602001611ba9565b9050828152838383011115611c1b57600080fd5b828260208301376000602084830101529392505050565b600060208284031215611c4457600080fd5b813567ffffffffffffffff811115611c5b57600080fd5b8201601f81018413611c6c57600080fd5b611c7b84823560208401611bda565b949350505050565b600060208284031215611c9557600080fd5b5035919050565b60005b83811015611cb7578181015183820152602001611c9f565b50506000910152565b60008151808452611cd8816020860160208601611c9c565b601f01601f19169290920160200192915050565b602081526000611b8c6020830184611cc0565b600060208284031215611d1157600080fd5b611b8c82611b13565b600067ffffffffffffffff821115611d3457611d34611b93565b5060051b60200190565b600082601f830112611d4f57600080fd5b81356020611d64611d5f83611d1a565b611ba9565b82815260059290921b84018101918181019086841115611d8357600080fd5b8286015b84811015611d9e5780358352918301918301611d87565b509695505050505050565b600082601f830112611dba57600080fd5b611b8c83833560208501611bda565b600080600080600060a08688031215611de157600080fd5b611dea86611b13565b9450611df860208701611b13565b9350604086013567ffffffffffffffff80821115611e1557600080fd5b611e2189838a01611d3e565b94506060880135915080821115611e3757600080fd5b611e4389838a01611d3e565b93506080880135915080821115611e5957600080fd5b50611e6688828901611da9565b9150509295509295909350565b60008060408385031215611e8657600080fd5b50508035926020909101359150565b60008060408385031215611ea857600080fd5b823567ffffffffffffffff80821115611ec057600080fd5b818501915085601f830112611ed457600080fd5b81356020611ee4611d5f83611d1a565b82815260059290921b84018101918181019089841115611f0357600080fd5b948201945b83861015611f2857611f1986611b13565b82529482019490820190611f08565b96505086013592505080821115611f3e57600080fd5b50611f4b85828601611d3e565b9150509250929050565b600081518084526020808501945080840160005b83811015611f8557815187529582019590820190600101611f69565b509495945050505050565b602081526000611b8c6020830184611f55565b602080825282518282018190526000919060409081850190868401855b8281101561200357815180516001600160a01b03168552868101518786015285810151868601526060908101519085015260809093019290850190600101611fc0565b5091979650505050505050565b6000806040838503121561202357600080fd5b61202c83611b13565b91506020830135801515811461204157600080fd5b809150509250929050565b60008060006060848603121561206157600080fd5b61206a84611b13565b95602085013595506040909401359392505050565b6000806040838503121561209257600080fd5b61209b83611b13565b91506120a960208401611b13565b90509250929050565b600080600080600060a086880312156120ca57600080fd5b6120d386611b13565b94506120e160208701611b13565b93506040860135925060608601359150608086013567ffffffffffffffff81111561210b57600080fd5b611e6688828901611da9565b600181811c9082168061212b57607f821691505b60208210810361214b57634e487b7160e01b600052602260045260246000fd5b50919050565b634e487b7160e01b600052603260045260246000fd5b634e487b7160e01b600052601160045260246000fd5b60006001820161218f5761218f612167565b5060010190565b60208082526023908201527f536f6c6f20656c20656e72757461646f7220707565646520696e7465726163746040820152623ab0b960e91b606082015260800190565b600082516121eb818460208701611c9c565b9190910192915050565b828152604060208201526000611c7b6040830184611cc0565b601f821115610b5157600081815260208120601f850160051c810160208610156122355750805b601f850160051c820191505b8181101561070157828155600101612241565b815167ffffffffffffffff81111561226e5761226e611b93565b6122828161227c8454612117565b8461220e565b602080601f8311600181146122b7576000841561229f5750858301515b600019600386901b1c1916600185901b178555610701565b600085815260208120601f198616915b828110156122e6578886015182559484019460019091019084016122c7565b50858210156123045787850151600019600388901b60f8161c191681555b5050505050600190811b01905550565b8082018082111561054f5761054f612167565b60408152600061233a6040830185611f55565b828103602084015261234c8185611f55565b95945050505050565b6001600160a01b03868116825285166020820152604081018490526060810183905260a06080820181905260009061238f90830184611cc0565b979650505050505050565b6000602082840312156123ac57600080fd5b8151611b8c81611b59565b6001600160a01b0386811682528516602082015260a0604082018190526000906123e390830186611f55565b82810360608401526123f58186611f55565b905082810360808401526124098185611cc0565b9897505050505050505056fea264697066735822122018fbc40c331de485f8de919a5da222a858c558a708d5f9084b511027d92103e164736f6c6343000814003368747470733a2f2f67616d652e6578616d706c652f6170692f6974656d2f7b69647d2e6a736f6e",
  "devdoc": {
    "errors": {
      "ERC1155InsufficientBalance(address,uint256,uint256,uint256)": [
        {
          "details": "Indicates an error related to the current `balance` of a `sender`. Used in transfers.",
          "params": {
            "balance": "Current balance for the interacting account.",
            "needed": "Minimum amount required to perform a transfer.",
            "sender": "Address whose tokens are being transferred.",
            "tokenId": "Identifier number of a token."
          }
        }
      ],
      "ERC1155InvalidApprover(address)": [
        {
          "details": "Indicates a failure with the `approver` of a token to be approved. Used in approvals.",
          "params": {
            "approver": "Address initiating an approval operation."
          }
        }
      ],
      "ERC1155InvalidArrayLength(uint256,uint256)": [
        {
          "details": "Indicates an array length mismatch between ids and values in a safeBatchTransferFrom operation. Used in batch transfers.",
          "params": {
            "idsLength": "Length of the array of token identifiers",
            "valuesLength": "Length of the array of token amounts"
          }
        }
      ],
      "ERC1155InvalidOperator(address)": [
        {
          "details": "Indicates a failure with the `operator` to be approved. Used in approvals.",
          "params": {
            "operator": "Address that may be allowed to operate on tokens without being their owner."
          }
        }
      ],
      "ERC1155InvalidReceiver(address)": [
        {
          "details": "Indicates a failure with the token `receiver`. Used in transfers.",
          "params": {
            "receiver": "Address to which tokens are being transferred."
          }
        }
      ],
      "ERC1155InvalidSender(address)": [
        {
          "details": "Indicates a failure with the token `sender`. Used in transfers.",
          "params": {
            "sender": "Address whose tokens are being transferred."
          }
        }
      ],
      "ERC1155MissingApprovalForAll(address,address)": [
        {
          "details": "Indicates a failure with the `operator`s approval. Used in transfers.",
          "params": {
            "operator": "Address that may be allowed to operate on tokens without being their owner.",
            "owner": "Address of the current owner of a token."
          }
        }
      ],
      "OwnableInvalidOwner(address)": [
        {
          "details": "The owner is not a valid owner account. (eg. `address(0)`)"
        }
      ],
      "OwnableUnauthorizedAccount(address)": [
        {
          "details": "The caller account is not authorized to perform an operation."
        }
      ],
      "ReentrancyGuardReentrantCall()": [
        {
          "details": "Unauthorized reentrant call."
        }
      ]
    },
    "events": {
      "ApprovalForAll(address,address,bool)": {
        "details": "Emitted when `account` grants or revokes permission to `operator` to transfer their tokens, according to `approved`."
      },
      "TransferBatch(address,address,address,uint256[],uint256[])": {
        "details": "Equivalent to multiple {TransferSingle} events, where `operator`, `from` and `to` are the same for all transfers."
      },
      "TransferSingle(address,address,address,uint256,uint256)": {
        "details": "Emitted when `value` amount of tokens of type `id` are transferred from `from` to `to` by `operator`."
      },
      "URI(string,uint256)": {
        "details": "Emitted when the URI for token type `id` changes to `value`, if it is a non-programmatic URI. If an {URI} event was emitted for `id`, the standard https://eips.ethereum.org/EIPS/eip-1155#metadata-extensions[guarantees] that `value` will equal the value returned by {IERC1155MetadataURI-uri}."
      }
    },
    "kind": "dev",
    "methods": {
      "balanceOf(address,uint256)": {
        "details": "See {IERC1155-balanceOf}."
      },
      "balanceOfBatch(address[],uint256[])": {
        "details": "See {IERC1155-balanceOfBatch}. Requirements: - `accounts` and `ids` must have the same length."
      },
      "isApprovedForAll(address,address)": {
        "details": "See {IERC1155-isApprovedForAll}."
      },
      "owner()": {
        "details": "Returns the address of the current owner."
      },
      "renounceOwnership()": {
        "details": "Leaves the contract without owner. It will not be possible to call `onlyOwner` functions. Can only be called by the current owner. NOTE: Renouncing ownership will leave the contract without an owner, thereby disabling any functionality that is only available to the owner."
      },
      "safeBatchTransferFrom(address,address,uint256[],uint256[],bytes)": {
        "details": "See {IERC1155-safeBatchTransferFrom}."
      },
      "safeTransferFrom(address,address,uint256,uint256,bytes)": {
        "details": "See {IERC1155-safeTransferFrom}."
      },
      "setApprovalForAll(address,bool)": {
        "details": "See {IERC1155-setApprovalForAll}."
      },
      "supportsInterface(bytes4)": {
        "details": "See {IERC165-supportsInterface}."
      },
      "transferOwnership(address)": {
        "details": "Transfers ownership of the contract to a new account (`newOwner`). Can only be called by the current owner."
      },
      "uri(uint256)": {
        "details": "See {IERC1155MetadataURI-uri}. This implementation returns the same URI for *all* token types. It relies on the token type ID substitution mechanism https://eips.ethereum.org/EIPS/eip-1155#metadata[defined in the EIP]. Clients calling this function must replace the `\\{id\\}` substring with the actual token type ID."
      }
    },
    "version": 1
  },
  "userdoc": {
    "kind": "user",
    "methods": {},
    "version": 1
  },
  "storageLayout": {
    "storage": [
      {
        "astId": 326,
        "contract": "contracts/UnifiedFactionToken.sol:UnifiedFactionToken",
        "label": "_balances",
        "offset": 0,
        "slot": "0",
        "type": "t_mapping(t_uint256,t_mapping(t_address,t_uint256))"
      },
      {
        "astId": 332,
        "contract": "contracts/UnifiedFactionToken.sol:UnifiedFactionToken",
        "label": "_operatorApprovals",
        "offset": 0,
        "slot": "1",
        "type": "t_mapping(t_address,t_mapping(t_address,t_bool))"
      },
      {
        "astId": 334,
        "contract": "contracts/UnifiedFactionToken.sol:UnifiedFactionToken",
        "label": "_uri",
        "offset": 0,
        "slot": "2",
        "type": "t_string_storage"
      },
      {
        "astId": 8,
        "contract": "contracts/UnifiedFactionToken.sol:UnifiedFactionToken",
        "label": "_owner",
        "offset": 0,
        "slot": "3",
        "type": "t_address"
      },
      {
        "astId": 2359,
        "contract": "contracts/UnifiedFactionToken.sol:UnifiedFactionToken",
        "label": "_status",
        "offset": 0,
        "slot": "4",
        "type": "t_uint256"
      },
      {
        "astId": 3929,
        "contract": "contracts/UnifiedFactionToken.sol:UnifiedFactionToken",
        "label": "router",
        "offset": 0,
        "slot": "5",
        "type": "t_address"
      },
      {
        "astId": 3933,
        "contract": "contracts/UnifiedFactionToken.sol:UnifiedFactionToken",
        "label": "allowedMinters",
        "offset": 0,
        "slot": "6",
        "type": "t_mapping(t_address,t_bool)"
      },
      {
        "astId": 3961,
        "contract": "contracts/UnifiedFactionToken.sol:UnifiedFactionToken",
        "label": "userScores",
        "offset": 0,
        "slot": "7",
        "type": "t_mapping(t_address,t_struct(Scores)3940_storage)"
      },
      {
        "astId": 3966,
        "contract": "contracts/UnifiedFactionToken.sol:UnifiedFactionToken",
        "label": "userFactionNFTs",
        "offset": 0,
        "slot": "8",
        "type": "t_mapping(t_address,t_struct(FactionNFT)3947_storage)"
      },
      {
        "astId": 3970,
        "contract": "contracts/UnifiedFactionToken.sol:UnifiedFactionToken",
        "label": "factionTokenLogs",
        "offset": 0,
        "slot": "9",
        "type": "t_array(t_struct(MintLog)3956_storage)dyn_storage"
      },
      {
        "astId": 3976,
        "contract": "contracts/UnifiedFactionToken.sol:UnifiedFactionToken",
        "label": "userFactionTokenLogs",
        "offset": 0,
        "slot": "10",
        "type": "t_mapping(t_address,t_array(t_struct(MintLog)3956_storage)dyn_storage)"
      }
    ],
    "types": {
      "t_address": {
        "encoding": "inplace",
        "label": "address",
        "numberOfBytes": "20"
      },
      "t_array(t_struct(MintLog)3956_storage)dyn_storage": {
        "base": "t_struct(MintLog)3956_storage",
        "encoding": "dynamic_array",
        "label": "struct UnifiedFactionToken.MintLog[]",
        "numberOfBytes": "32"
      },
      "t_bool": {
        "encoding": "inplace",
        "label": "bool",
        "numberOfBytes": "1"
      },
      "t_int256": {
        "encoding": "inplace",
        "label": "int256",
        "numberOfBytes": "32"
      },
      "t_mapping(t_address,t_array(t_struct(MintLog)3956_storage)dyn_storage)": {
        "encoding": "mapping",
        "key": "t_address",
        "label": "mapping(address => struct UnifiedFactionToken.MintLog[])",
        "numberOfBytes": "32",
        "value": "t_array(t_struct(MintLog)3956_storage)dyn_storage"
      },
      "t_mapping(t_address,t_bool)": {
        "encoding": "mapping",
        "key": "t_address",
        "label": "mapping(address => bool)",
        "numberOfBytes": "32",
        "value": "t_bool"
      },
      "t_mapping(t_address,t_mapping(t_address,t_bool))": {
        "encoding": "mapping",
        "key": "t_address",
        "label": "mapping(address => mapping(address => bool))",
        "numberOfBytes": "32",
        "value": "t_mapping(t_address,t_bool)"
      },
      "t_mapping(t_address,t_struct(FactionNFT)3947_storage)": {
        "encoding": "mapping",
        "key": "t_address",
        "label": "mapping(address => struct UnifiedFactionToken.FactionNFT)",
        "numberOfBytes": "32",
        "value": "t_struct(FactionNFT)3947_storage"
      },
      "t_mapping(t_address,t_struct(Scores)3940_storage)": {
        "encoding": "mapping",
        "key": "t_address",
        "label": "mapping(address => struct UnifiedFactionToken.Scores)",
        "numberOfBytes": "32",
        "value": "t_struct(Scores)3940_storage"
      },
      "t_mapping(t_address,t_uint256)": {
        "encoding": "mapping",
        "key": "t_address",
        "label": "mapping(address => uint256)",
        "numberOfBytes": "32",
        "value": "t_uint256"
      },
      "t_mapping(t_uint256,t_mapping(t_address,t_uint256))": {
        "encoding": "mapping",
        "key": "t_uint256",
        "label": "mapping(uint256 => mapping(address => uint256))",
        "numberOfBytes": "32",
        "value": "t_mapping(t_address,t_uint256)"
      },
      "t_string_storage": {
        "encoding": "bytes",
        "label": "string",
        "numberOfBytes": "32"
      },
      "t_struct(FactionNFT)3947_storage": {
        "encoding": "inplace",
        "label": "struct UnifiedFactionToken.FactionNFT",
        "members": [
          {
            "astId": 3942,
            "contract": "contracts/UnifiedFactionToken.sol:UnifiedFactionToken",
            "label": "dominant",
            "offset": 0,
            "slot": "0",
            "type": "t_uint256"
          },
          {
            "astId": 3944,
            "contract": "contracts/UnifiedFactionToken.sol:UnifiedFactionToken",
            "label": "recessive",
            "offset": 0,
            "slot": "1",
            "type": "t_uint256"
          },
          {
            "astId": 3946,
            "contract": "contracts/UnifiedFactionToken.sol:UnifiedFactionToken",
            "label": "exists",
            "offset": 0,
            "slot": "2",
            "type": "t_bool"
          }
        ],
        "numberOfBytes": "96"
      },
      "t_struct(MintLog)3956_storage": {
        "encoding": "inplace",
        "label": "struct UnifiedFactionToken.MintLog",
        "members": [
          {
            "astId": 3949,
            "contract": "contracts/UnifiedFactionToken.sol:UnifiedFactionToken",
            "label": "user",
            "offset": 0,
            "slot": "0",
            "type": "t_address"
          },
          {
            "astId": 3951,
            "contract": "contracts/UnifiedFactionToken.sol:UnifiedFactionToken",
            "label": "tokenId",
            "offset": 0,
            "slot": "1",
            "type": "t_uint256"
          },
          {
            "astId": 3953,
            "contract": "contracts/UnifiedFactionToken.sol:UnifiedFactionToken",
            "label": "amount",
            "offset": 0,
            "slot": "2",
            "type": "t_uint256"
          },
          {
            "astId": 3955,
            "contract": "contracts/UnifiedFactionToken.sol:UnifiedFactionToken",
            "label": "timestamp",
            "offset": 0,
            "slot": "3",
            "type": "t_uint256"
          }
        ],
        "numberOfBytes": "128"
      },
      "t_struct(Scores)3940_storage": {
        "encoding": "inplace",
        "label": "struct UnifiedFactionToken.Scores",
        "members": [
          {
            "astId": 3935,
            "contract": "contracts/UnifiedFactionToken.sol:UnifiedFactionToken",
            "label": "reputation",
            "offset": 0,
            "slot": "0",
            "type": "t_int256"
          },
          {
            "astId": 3937,
            "contract": "contracts/UnifiedFactionToken.sol:UnifiedFactionToken",
            "label": "wealth",
            "offset": 0,
            "slot": "1",
            "type": "t_int256"
          },
          {
            "astId": 3939,
            "contract": "contracts/UnifiedFactionToken.sol:UnifiedFactionToken",
            "label": "total",
            "offset": 0,
            "slot": "2",
            "type": "t_int256"
          }
        ],
        "numberOfBytes": "96"
      },
      "t_uint256": {
        "encoding": "inplace",
        "label": "uint256",
        "numberOfBytes": "32"
      }
    }
  }
}